:020000040800F2
:10000000C808002039020008791C0008451A0008B9
:10001000CD1B00089F0600087123000800000000A7
:100020000000000000000000000000007D1C00082F
:1000300049070008000000007B1C0008691F000839
:10004000530200085302000853020008530200083C
:10005000530200085302000853020008530200082C
:10006000530200085302000853020008530200081C
:10007000530200085302000853020008530200080C
:1000800053020008530200085302000853020008FC
:1000900053020008530200085302000853020008EC
:1000A00053020008530200085302000853020008DC
:1000B00053020008530200085302000853020008CC
:1000C00053020008530200085302000853020008BC
:1000D0005302000859230008530200086523000852
:1000E000530200085302000853020008530200089C
:1000F000530200085302000853020008530200088C
:10010000530200085302000853020008530200087B
:10011000530200085302000853020008112000088F
:10012000530200085302000853020008530200085B
:10013000530200085302000853020008530200084B
:10014000530200085302000853020008530200083B
:10015000530200085302000853020008530200082B
:10016000530200085302000853020008530200081B
:100170005302000853020008530200080000000068
:10018000530200085302000800F002F800F045F89E
:100190000AA090E8000C82448344AAF10107DA45E2
:1001A00001D100F03AF8AFF2090EBAE80F0013F0EF
:1001B000010F18BFFB1A43F001031847342E00004B
:1001C000542E0000103A24BF78C878C1FAD85207DC
:1001D00024BF30C830C144BF04680C6070470000C1
:1001E0000023002400250026103A28BF78C1FBD840
:1001F000520728BF30C148BF0B6070471FB502F0DF
:10020000CAFE00F0E9F904000020002102F0DCF948
:10021000401C60601FBD10B510BD00F0B8F911465C
:10022000FFF7ECFF02F0B6F800F0E8F903B4FFF7CF
:10023000F2FF03BC00F02CFA094880470948004748
:10024000FEE7FEE7FEE7FEE7FEE7FEE7FEE7FEE786
:10025000FEE7FEE704480549054A064B70470000E3
:100260000120000889010008C8020020C8080020F9
:10027000C8040020C804002053EA020C00F0698082
:100280002DE9F04B4FF00006002B1FBFB3FA83F5AA
:1002900003FA05F424FA05F65E4012BF1643B2FADB
:1002A00082F502FA05F4C5F120051EBF22FA05FC0D
:1002B00044EA0C04203556EA044C4FEA144418BFB3
:1002C000641C4FF000084FF00009904271EB030CE2
:1002D00039D3002919BFB1FA81F701FA07F6B0FA4C
:1002E00080F700FA07F6C7F120071EBF20FA07FCC7
:1002F00046EA0C062037B6FBF4FCA7EB0507103FD7
:1003000007F01F0BCBF120060CFA0BFB2CFA06F6BC
:1003100044BFB3460026202FA4BF5E464FF0000B1B
:100320005BEA060C08BF4FF0010B19EB0B09ABFBA6
:10033000027C48EB0608C01B06FB02CC0BFB03CC7F
:1003400071EB0C01C1E70B46024641464846BDE849
:10035000F08B13B54FF000004FF00001AFF30080B9
:10036000BDE81C40704770B5064600F039F80468D7
:10037000054630460A22002100F036F82C6070BD98
:10038000014A00F069B80000B00000204FF0000200
:1003900000B5134694469646203922BFA0E80C507B
:1003A000A0E80C50B1F12001BFF4F7AF090728BF56
:1003B000A0E80C5048BF0CC05DF804EB890028BFD2
:1003C00040F8042B08BF704748BF20F8022B11F0FB
:1003D000804F18BF00F8012B704770477047704777
:1003E00000487047680200202DE9F04791460F460B
:1003F00080460446002614F8015B2DB100F052F847
:100400000068405DC007F6D12B2D02D02D2D18D0ED
:10041000641E4A463946204600F04CF827B1396838
:10042000A14201D1C7F800804FF0020471050BD53D
:100430004042002803DDFFF7D3FF0460A007BDE8BA
:10044000F08746F48066E4E70028F8DAFFF7C8FF93
:1004500004606FF00040F2E72DE9F04115460E46CA
:10046000040002D12C6804B90BA4204600F081F8E6
:100470000444207870B127463146384600F069F8C8
:100480000444207810B1002004F8010B38462C6099
:10049000BDE8F0810027F9E7000000000048704740
:1004A0006802002010B500F097F8001D10BD00BFD5
:1004B000192100002DE9F05F824615468B46002782
:1004C0000AF10104B9460078302801D09DB113E04B
:1004D00014F8010B0127782803D0582801D045B122
:1004E0000AE00DB1102D07D1002714F8010B1025DB
:1004F00002E0082500E00A250026B0460EE005FBD4
:10050000080005FB06F101271FFA80F801EB1046F1
:10051000B6F5803F00D3B94614F8010B294600F028
:100520005FF80028EBDABBF1000F05D00FB1641EB5
:1005300000E05446CBF80040B9F1000F06D0FFF7B9
:100540004FFF02210160C81EBDE8F09F48EA064047
:10055000FAE730B503461D781DB10A4603E0AC4208
:1005600001D1181A30BD12F8014B002CF7D15B1CD9
:10057000F1E730B503461D783DB10A4612F8014B4C
:100580001CB1AC42FAD15B1CF5E7181A30BD7546B8
:10059000FFF784FFAE4605006946534620F007008A
:1005A000854618B020B5FFF755FEBDE820404FF056
:1005B00000064FF000074FF000084FF0000B21F04D
:1005C0000701AC46ACE8C009ACE8C009ACE8C0091A
:1005D000ACE8C0098D46704700487047880200208B
:1005E0003A2800D2303820F02002412A01D3A2F16B
:1005F0003700884201D34FF0FF30704710B50446F2
:10060000AFF300802046BDE81040FFF70FBE0000AA
:100610004FF0013C50F8042B51F8043B9A4221D191
:10062000A2EB0C03934313EACC1317D150F8042B1D
:1006300051F8043B9A4215D1A2EB0C03934313EA01
:10064000CC130BD150F8042B51F8043B9A4209D13A
:10065000A2EB0C03934313EACC13DBD04FF0000062
:10066000704700BFD01A01BAB1FA81F101F0180148
:1006700022FA01F0CB40C1F12001DBB2C0B2C01AB6
:100680002CFA01F3D11A914311EAC311E6D1704754
:1006900001491820ABBEFEE7260002007047FEE7C6
:1006A00010B54FF00D0258B32449254801F0B0F9B8
:1006B000012000F0A7F821490D220D31204801F05A
:1006C000A7F9012000F09EF81C490D221A311C48A0
:1006D00001F09EF9012000F095F818490D2227310C
:1006E000174801F095F9012000F08CF80422154913
:1006F000134801F08DF9BDE81040022000F082B8E7
:100700000E490F48343901F083F9012000F07AF8DE
:100710000A490D2227390A4801F07AF9012000F030
:1007200071F806490D221A39054801F071F90120C6
:1007300000F068F801490D220D39D1E75E00002074
:1007400090010020AC000020704772B6FEE72DE952
:10075000F0410446876D00F06DF9064694F83500C7
:100760000025022806D08020606584F834500120DE
:10077000BDE8F0812068016821F016010160206861
:10078000416921F080014161206C08B9A06C20B161
:100790002068016821F0080101602068016821F0EB
:1007A000010101600CE000F045F9801B052807D924
:1007B00020206065032084F8350084F83450D7E7A2
:1007C00020680068C007EED194F85C103F20884094
:1007D000B860012084F8350084F834500020C7E761
:1007E00090F83510022903D080214165012070471F
:1007F000052180F835100068016821F001010160D1
:100800000020704770B5044600F014F90546601CDE
:1008100002D004480078044400F00CF9401BA042C8
:10082000FAD370BD9C0000202DE9F84FDFF8BCA181
:100830000022012503264FF00F090AF1040BAAF14B
:10084000040E00BF0B6805FA02F42340A34270D1E6
:100850000F7907F00307012F01D0022F16D1876807
:100860004FEA420806FA08FC27EA0C07D1F80CC048
:100870000CFA08FC4CEA070CC0F808C04768A7430C
:100880000C79C4F3001494403C4344600C79E44375
:10089000A4070AD0C4684FEA420C06FA0CF7BC431E
:1008A0008F6807FA0CF72743C7600C7904F003043C
:1008B000022C12D1D40800EB840CDCF8204057073E
:1008C000FF0E09FA07F824EA0804D1F8108008FAA4
:1008D00007F848EA0408CCF8208004684FEA420C84
:1008E00006FA0CF7BC430F7907F0030707FA0CF779
:1008F000274307604C6814F4403F70D03C4C276895
:1009000047F480472760246822F0030704F48044FA
:100910000094384C07EB040CDCF8084897074FEAC2
:10092000177809FA08F7BC43334FB84202D10027C1
:1009300024E054E0314FB84201D101271EE0304F8E
:10094000B84201D1022719E02E4FB84201D1032746
:1009500014E02D4FB84201D104270FE02B4FB842CD
:1009600001D105270AE02A4FB84201D1062705E048
:10097000284FB84201D1072700E0082707FA08F7F7
:100980002743CCF80878DAF800405746D1F804C07D
:100990009C435FEACC2C00D51C433C60DBF8004054
:1009A0005F46D1F804C09C435FEA8C2C00D51C4301
:1009B0003C60DEF800407746D1F804C09C435FEA13
:1009C0008C3C00D51C433C60084F083F3C68D1F884
:1009D00004C09C435FEACC3C00D51C433C60521CE5
:1009E000102AFFF42FAFBDE8F88F0000083C01404B
:1009F0004438024000300140000002400004024040
:100A000000080240000C02400010024000140240A6
:100A100000180240001C0240426921EA02030A4019
:100A200043EA0241816170470AB18161704709045C
:100A3000FBE7000001488068704700009C00002030
:100A400070B5040025D094F83D00002520B984F845
:100A50003C50204600F0B8F8242084F83D0020687F
:100A6000016821F0010101602068016841F4004142
:100A700001602068016821F40041016000F058FA2B
:100A80004D4A6168914201D84C4900E04C49884286
:100A900001D2012070BD4B492368B0FBF1F15E68C3
:100AA00026F03F060E435E606368934206D94FF41A
:100AB000967359434FF47A73B1FBF3F12368491CE1
:100AC0001E6A26F03F06314319626168914210D8D0
:100AD0004900401EB0FBF1F2521CC2F30B02042A83
:100AE00001D2042022E0B0FBF1F0401CC0F30B0067
:100AF0001CE0A268F2B301EBC10303EB0116431E35
:100B0000B3FBF6F35B1C43F480431B0549D092B35F
:100B100001EBC10202EB0111401EB0FBF1F0401CE1
:100B2000C0F30B0040F4804040F400402168CA69E3
:100B30004CF6FF739A431043C861D4E90710014390
:100B40002068026822F0C00211430160D4E9030169
:100B500001432068826848F2FF339A431143816061
:100B6000D4E9050108432168CA6822F0FF02104356
:100B7000C86001E00EE016E02068016841F0010164
:100B800001602564202084F83D00256384F83E50F0
:100B9000002070BD01EB4106431EB3FBF6F35B1C66
:100BA000B3E70120C2E701EB4101401EB0FBF1F0C9
:100BB000401CC0F30B00B7E7A086010080841E0034
:100BC00000093D0040420F0010B586B004461421D4
:100BD0006846FFF7DBFB13492068884220D11248A2
:100BE0000021026842F002020260006800F0020088
:100BF0000590C02000901220CDE901010320039050
:100C00000420049069460948FFF70EFE064810309C
:100C1000016841F400110160006800F400100590C3
:100C200006B010BD005400403038024000040240BD
:100C30000248816802781144816070479C0000205E
:100C40000B4810B5016841F400710160016841F47E
:100C500080610160016841F480710160032000F04F
:100C60009BF80F2000F006F800F050F8002010BDAF
:100C7000003C024030B505461F4887B0002401689B
:100C800041F020010160006806A900F020000090FA
:100C900001A800F02DF90498A8B100F049F940002E
:100CA0001649174AB0FBF1F11648491E026040F29E
:100CB000E732C0E90324C0E90114846100F040FB7D
:100CC000040003D015E000F033F9E9E70D4800F027
:100CD00065FB04000DD1372000F030F8102D07D24D
:100CE00000222946372000F037F80748056000E069
:100CF000012407B0204630BD4038024040420F007A
:100D00000014004020020020A00000200A4808B57E
:100D1000016841F480410160006800F48040009067
:100D20000548001F016841F080510160006800F033
:100D30008050009008BD000044380240002809DBC4
:100D400000F01F02012191404009800000F1E020E5
:100D5000C0F8001170470000F0B40E4B1B680C4641
:100D6000C3F30223C3F10705042D00D90425191D7F
:100D7000072901D2002300E0DB1E012606FA05F157
:100D8000491E214099409E40761E16403143F0BCDA
:100D900001F0EFBA0CED00E0064900F00702086828
:100DA0004FF6FF03184040EA0220034A1043086050
:100DB000704700000CED00E00000FA052DE9F04757
:100DC0000E46050065D0DFF81481D8F80000F7B2B0
:100DD00000F00700B04207D288F80070D8F8000091
:100DE00000F00700B04254D128683D4C810712D56D
:100DF000400703D5206840F4E050206028780007C1
:100E000003D5206840F4604020602068A96820F085
:100E1000F000084320602878C0072DD0304968686A
:100E20000839012812D0022813D0032811D00968EC
:100E3000890700292DDA216821F00301014321608F
:100E4000FFF7F8FD814641F2883A0EE00968890310
:100E5000EFE709688901ECE7FFF7ECFDA0EB09017A
:100E6000514502D90320BDE8F0872068696800F089
:100E70000C00B0EB810FEFD1D8F80010404601F024
:100E80000701B14207D90770006800F00700B042BF
:100E900001D00120E7E72878400705D52068E968F8
:100EA00020F4E050084320602878000706D5206829
:100EB000296920F4604040EAC100206000F058F841
:100EC0002168084AC1F30311515CC8400649086013
:100ED00006480068FFF7CEFE0020C4E7003C024051
:100EE00008380240C82F0008A8000020A0000020F9
:100EF0000F2202600C4A136803F003034360136877
:100F000003F0F0038360136803F4E053C3601268D6
:100F10004FF4E05303EAD20202610448006800F093
:100F2000070008607047000008380240003C02409B
:100F30000448054900680968044AC1F38221515CEC
:100F4000C8407047A800002008380240D82F000889
:100F50000448054900680968044AC1F34231515CFC
:100F6000C8407047A800002008380240D82F000869
:100F7000154810B5006810F00C02144813D0411049
:100F8000042A0FD0082A0ED10F4C241F2268236890
:100F900002F03F025B0207D52068C0F38810A0FB77
:100FA000010106E0084610BD2168C1F38811A1FBCC
:100FB00000010023FFF760F92168C1F30141491CDA
:100FC0004900B0FBF1F010BD083802400024F400E5
:100FD0002DE9F84F04006ED02078DFF84C93C0075D
:100FE000A9F104054AD009F104000168C1F38101A7
:100FF000012908D00068C0F3810002280AD1D9F87D
:101000000000400206D52868800337D560680028B4
:10101000E1D033E06068B0F5803F10D0B0F5A02F8C
:10102000286810D020F480302860286820F48020C0
:1010300028606068A8B1FFF7FDFC06460DE028684F
:1010400040F48030F4E740F480202860F7E700BFE8
:10105000FFF7F0FC801B642873D828688003F7D55D
:101060000CE0FFF7E7FC064605E000BFFFF7E2FCF7
:10107000801B6428F0D828688003F7D42078DFF834
:10108000AC8280074FF0000A3ED5A748001D0168DA
:1010900011F00C0F08D00068C0F3810002280BD1BA
:1010A000D9F80000400207D42868800716D5E06808
:1010B000012800D112E033E1E068B8B10120C8F89E
:1010C0000000FFF7B7FC064605E000BFFFF7B2FCE3
:1010D000801B0228C0D828688007F7D528682169B6
:1010E00020F0F80040EAC10028600DE0C8F800A038
:1010F000FFF7A0FC064604E0FFF79CFC801B0228DB
:101100001FD828688007F7D42078000722D5864F9B
:1011100087486169703771B101210160FFF78AFC6E
:10112000064604E0FFF786FC801B022809D83868D1
:101130008007F7D50EE0C0F800A0FFF77BFC06465D
:1011400005E082E0FFF776FC801B02287DD8386836
:101150008007F7D42078400768D5DFF8CCB10027A6
:101160000BF13C0BDBF80000C0000BD4DBF80010E7
:1011700041F08051CBF80010DBF80000012700F0AF
:10118000805000906B4E3068C00510D4306840F439
:1011900080703060FFF74EFC009005E0FFF74AFCDE
:1011A0000099401A022850D83068C005F6D55E4E26
:1011B000A0686C3601280FD00528306810D020F0C8
:1011C00001003060306820F004003060A068B8B1E1
:1011D000FFF730FC00900FE0306840F00100F4E7CA
:1011E00040F004003060F7E7FFF724FC0099411A53
:1011F00041F28830814266D830688007F4D50EE02D
:10120000FFF718FC009007E0FFF714FC0099411A63
:1012100041F28830814256D830688007F4D42FB12B
:10122000DBF8001021F08051CBF80010A069C8B3A2
:101230003D49091D0968C1F3810102294AD00228EC
:10124000504607D0C8F8600000E03CE0FFF7F2FB32
:1012500004463BE04746C8F86000FFF7EBFB064654
:1012600005E000BFFFF7E6FB801B02282BD82868AB
:101270008001F7D4D4E907010843A16A2E4A49083E
:1012800002EB0141626A41EA8211084394F82C1092
:1012900040EA0161C9F8001001203866FFF7CAFB77
:1012A000044606E03EE000BFFFF7C4FB001B022837
:1012B00009D828688001F7D534E000BFFFF7BAFBF2
:1012C000001B022802D90320BDE8F88F286880019E
:1012D000F4D427E00128F7D0D9F80000E26900F43F
:1012E000800191421CD1226A00F03F01914217D146
:1012F00047F6C071626A0140B1EB821F10D1A26A49
:101300004FF0FF3300F4403103EB5202B1EB024FD8
:1013100006D194F82C1000F07060B0EB016F01D092
:101320000120D1E70020CFE7043802400000474207
:10133000800E4742007000400000FFFF704770477A
:1013400010B5040003D094F83D0010B107E001206F
:1013500010BD002084F83C00204600F01EF802205A
:1013600084F83D00211D206800F058FE012084F81B
:10137000460084F83E0084F83F0084F8400084F87A
:10138000410084F8420084F8430084F8440084F863
:10139000450084F83D00002010BD704790F83D10D6
:1013A000012901D001207047022180F83D10016819
:1013B000CA6842F00102CA6000681149884214D02C
:1013C000B0F1804F11D00F4988420ED00E498842AB
:1013D0000BD00E49884208D00D49884205D00D49EE
:1013E000884202D00C49884204D1816801F007018B
:1013F000062903D0016841F0010101600020704717
:10140000000001400004004000080040000C0040C3
:1014100000040140004001400018004070472DE9E1
:10142000F04104460068C66805694FF00007A90747
:1014300013D5B10711D5F91E01610120207720686D
:1014400080698007204602D0FFF7E8FF04E000F043
:101450007EF8204600F07CF82777680716D57007DD
:1014600014D521686FF004000861022020772068FD
:10147000806910F4407F204602D0FFF7CFFF04E0E0
:1014800000F065F8204600F063F82777280715D5A7
:10149000300713D521686FF0080008610420207719
:1014A0002068C0698007204602D0FFF7B7FF04E03C
:1014B00000F04DF8204600F04BF82777E80616D5E7
:1014C000F00614D521686FF010000861082020771D
:1014D0002068C06910F4407F204602D0FFF79EFFCD
:1014E00004E000F034F8204600F032F82777E807EF
:1014F00008D0F00706D021686FF00100086120468F
:1015000000F028F8280608D5300606D521686FF0C7
:10151000800008612046FFF711FF680608D57006B5
:1015200006D521686FF040000861204600F01CF8E5
:10153000A8060AD5B00608D521686FF0200008611A
:101540002046BDE8F041FFF7FABEBDE8F0817047E4
:101550007047000000680349884201D1FFF768BB6B
:10156000704700000014004070477047704700004B
:10157000F8B5016804460868CA684B6910F00F0F97
:101580004FF0000559D003F0010602F4907737437D
:1015900065D0C10705D0D10503D5616C41F00101CB
:1015A0006164410705D5D90703D0616C41F00201A0
:1015B0006164810705D5D90703D0616C41F004014E
:1015C0006164010707D502F02001314303D0616C4B
:1015D00041F008016164616C00293AD0800604D5AD
:1015E000900602D5204600F0B4FD20684069616C89
:1015F000C0F38010090700D460B3204600F082FDDC
:1016000020684069400621D52068143050E8001F4A
:1016100021F0400140E80012002AF5D1E06BA8B1AA
:101620006E490165E06BFFF7DBF8002811D0E06B35
:10163000016D01B0BDE8F040084783060FD5930661
:101640000DD52046BDE8F84000F083BD2046FFF7E9
:101650008DFFF8BD2046FFF789FF6564F8BD266B56
:101660002023012E7DD1C6067BD5D60679D5086804
:101670004868009048694FF00206400641D5E16B8A
:10168000086840680004000CE8D0A28D8242E5D9C9
:10169000E085C869B0F5807F2DD020680C3050E817
:1016A000001F21F4807140E80012002AF5D1206863
:1016B000143050E8001F21F0010140E80012002A18
:1016C000F5D12068143050E8001F21F0400140E8B7
:1016D0000012002AF5D184F84230256320680C30CE
:1016E00050E8001F21F0100140E80012002AF5D157
:1016F000E06BFFF72CF86663A08DE18D401A81B294
:101700002AE0A08DE18D401A81B2E08D0028A5D09D
:101710000029A3D022680C3252E8000F20F4907008
:1017200042E80007002FF5D12068143050E8002F60
:1017300022F0010240E80027002FF5D184F8423062
:10174000256320680C3050E8002F22F0100240E89A
:101750000023002BF5D166632046FFF706FFF8BD96
:10176000FFE705062BD5150629D594F84100212859
:10177000F5D1A068B0F5805F01D12069B0B1206AD1
:10178000411C2162216800784860E08C401E000402
:10179000000CE084E3D12068C16821F08001C160C1
:1017A0002068C16841F04001C160D8E7206A008824
:1017B000C0F308004860206A801C2062E5E740060C
:1017C000CDD55006CBD5CA68204622F04002CA606B
:1017D00084F8413000F035F9C1E70000F520000839
:1017E00070B5040004D094F84100002510B106E063
:1017F000012070BD84F84050204600F023F82420DA
:1018000084F841002068C16821F40051C16020467D
:1018100000F000FD2068016921F490410161206819
:10182000416921F02A0141612068C16841F40051F9
:10183000C1606564202084F8410084F8420065633B
:10184000002070BDF0B587B0044614216846FEF74D
:101850009DFD4548434B226800244349103802252A
:1018600003269A422ED10A6842F480120A6009685F
:1018700001F480110591016841F0040101600168E3
:1018800001F004010591016841F008010160006860
:1018900002AA00F0080005909814CDE90005082779
:1018A00082E8D00069463148FEF7BEFF0420CDE94A
:1018B000000502AA694682E8D0002D48FEF7B4FF71
:1018C00007B0F0BD2B4F0723BA4223D12649091D8B
:1018D0000A6842F010020A60096801F010010591DF
:1018E000016841F0010101600068029400F001000C
:1018F00005904FF4C060CDE90005CDE9036369466A
:101900001D48FEF791FF002211462520FFF724FA1B
:10191000252023E0194FBA42D2D10A6842F480222E
:101920000A60096801F480210591016841F0020113
:1019300001600068029400F0020005904FF44060DE
:10194000CDE90005CDE9036369460D48FEF76CFF5C
:10195000002211462720FFF7FFF92720FFF7EEF9B5
:10196000AEE700000050004040380240000802404E
:10197000000C0240001001400000024000480040FE
:101980000004024090F84230202B01D00220704722
:1019900021B11AB10023036300F0C2BC01207047DB
:1019A00010B500681549884210D101221449154824
:1019B000FFF7E8FF124C1449A41EA2780A2A06D0A9
:1019C00060783F2802D20A54401C607010BD6278D3
:1019D0000020885460700DA10B48FEF7D1FC002850
:1019E000F4D0FEF7C0FCA06008A10020FEF7C8FC00
:1019F0000028EBD0FEF7B7FCE06010BD00480040C7
:101A000002000020D8010020B40000202C000000BB
:101A100090F84130202B01D00220704779B172B18B
:101A200001628284C28400214164212180F8411036
:101A30000068C16841F08001C1600020704701204A
:101A400070477047FEE7000070B586B01421684605
:101A5000FEF79CFC21480024016841F080010160F0
:101A6000016801F080010591016841F00401016005
:101A7000016801F004010591016841F00201016073
:101A8000016801F002010591016841F00101016066
:101A9000016801F001010591016841F00801016050
:101AA00000680F4E00F0080005900022202130460B
:101AB000FEF7BAFF0125CDE900546946304602948D
:101AC000FEF7B2FE20200090CDE901546946304671
:101AD0000394FEF7A9FE06B070BD00003038024046
:101AE000000802400D4810B50B4901600C494160E7
:101AF00000214FF480428160C0E90312416181619D
:101B0000C1610162FEF79CFF002803D0BDE81040D0
:101B1000FEF71BBE10BD000000540040F400002082
:101B2000A08601000C4810B50A4901604FF4E1316C
:101B30004160002181600C22C160C0E90412816112
:101B4000C161FFF74DFE002803D0BDE81040FEF74D
:101B5000FCBD10BD00500040480100200C4810B5ED
:101B60000A4901604FF4E1314160002181600C229B
:101B7000C160C0E904128161C161FFF731FE002834
:101B800003D0BDE81040FEF7E0BD10BD00100140DD
:101B9000900100200C4810B50A4901604FF4E13172
:101BA0004160002181600C22C160C0E904128161A2
:101BB000C161FFF715FE002803D0BDE81040FEF715
:101BC000C4BD10BD00480040D8010020FEE7000061
:101BD0001CB58DF80000F6208DF801008DF802107C
:101BE000100A8DF804208DF803008DF805300120CF
:101BF0008DF806006B208DF807000822694603481F
:101C0000FFF706FF0220FEF7FDFD1CBD900100203E
:101C100010B5052215491648FFF7FAFE0120FEF718
:101C2000F1FD12490522491D1148FFF7F1FE01207F
:101C3000FEF7E8FD0D4905220A310D48FFF7E8FEE1
:101C40000120FEF7DFFD094905220F310848FFF7A3
:101C5000DFFE0120FEF7D6FD042206490448FFF707
:101C6000D7FEBDE810400220FEF7CCBD10000020DA
:101C700090010020AC000020FEE770477047000094
:101C800010B501220D490E48FFF7C2FE0A20FEF7EB
:101C9000B9FD07220B490A48FFF774FE074A0020E6
:101CA0000849243214180B5C303B13540B18401CA9
:101CB0001B79303BE3700328F4DB10BD00000020EB
:101CC00048010020920000202DE9F05F2DED068BE9
:101CD000F0EE418AB0EE608AF0EE409A18EE900A7B
:101CE00001F0E8F841EC1A0B944890ED000B944891
:101CF00053EC102B90ED000B51EC100B00F0ACFCF2
:101D00000D4645EC110B044653EC1A2B51EC110B0C
:101D100000F0E8FE39EE889A41EC1A0B19EE100A31
:101D200001F0C8F853EC1A2B00F096FC00F062FCAE
:101D3000834618EE900A01F0BDF841EC100B45EC1B
:101D4000114B53EC102B51EC110B00F0CBFE38EE85
:101D5000698A41EC1A0B18EE100A01F0ABF853EC4B
:101D60001A2B00F079FC00F045FC824618EE900A30
:101D700001F0A0F841EC110B45EC104B53EC112B8A
:101D800051EC100B00F0AEFE41EC1A0B18EE100AED
:101D900001F090F853EC1A2B00F0A2FF00F02AFC9F
:101DA000814618EE900A01F085F841EC100B45ECE5
:101DB000114B53EC102B51EC110B00F093FE41EC46
:101DC000180B19EE100A01F075F853EC182B00F0FF
:101DD00087FF00F00FFC80465A48012290E8F0008F
:101DE0005948834500DA1446824500DA1546002139
:101DF000814500DA0E46804500DA0F46584601F06C
:101E000059F841EC100B514890ED001B51EC100BB0
:101E100053EC112B00F0C8FC9FED4D8B53EC182BAD
:101E200000F060FE9FED4C9B53EC192B00F058FF27
:101E300000F012FE002800DA40428346504601F0CE
:101E400039F841EC100B414890ED001B51EC100BA0
:101E500053EC112B00F0A8FC53EC182B00F042FEC1
:101E600000F0FAFD002800DA40428246484601F0C0
:101E700021F841EC100B354890ED001B51EC100B94
:101E800053EC112B00F090FC53EC182B00F02AFEC1
:101E900053EC192B00F024FF00F0DEFD002800DADF
:101EA00040428146404601F005F841EC100B2748BE
:101EB00090ED001B51EC100B53EC112B00F074FC57
:101EC00053EC182B00F00EFE00F0C6FD002800DADF
:101ED000404280461FFA8BF2E1B200230120FFF757
:101EE00077FE0220FEF78EFC1FFA8AF2E9B2002389
:101EF0000220FFF76DFE0220FEF784FC1FFA89F234
:101F0000F1B200230320FFF763FE0220FEF77AFC04
:101F10001FFA88F2F9B200230420FFF759FE0220CD
:101F2000FEF770FC04220E490E48FFF771FDBDEC70
:101F3000068B0220BDE8F05FFEF764BCB82F0008F6
:101F4000B02F0008E02F00086F12833AC02F00085E
:101F50000000000000004E400000000000000040B3
:101F6000AC000020900100207047000030B593B015
:101F700030216846FEF70AFA14210CA8FEF706FA8B
:101F80001D480025016841F080510160006800F0A3
:101F9000805011901948016841F480410160006847
:101FA000022400F480401190012000900004019070
:101FB0008001CDE9064008AA0420A82182E8130088
:101FC0000B906846FFF704F808B172B6FEE70CA95B
:101FD0000F2081E831004FF4A0500F904FF4805053
:101FE000109005210CA8FEF7E9FE002801D072B67A
:101FF000FEE713B030BD00004038024000700040E2
:102000000248016841F470010160704788ED00E00A
:102010000148FFF704BA000020020020F0B5026872
:10202000294C2A4D2A4E2B4F2B4B4FF0804CA0426F
:1020300009D0604507D0A84205D0B04203D0B842CD
:1020400001D0984204D122F0700E4A6842EA0E0292
:10205000A0421BD0604519D0A84217D0B04215D07D
:10206000B84213D0984211D01C4DA8420ED01C4D3E
:10207000A8420BD01B4DA84208D01B4DA84205D04A
:102080001A4DA84202D01A4DA84203D122F440753D
:10209000CA682A434D6922F080022A4302608A6896
:1020A000C2620A688262A04201D0984201D10969E5
:1020B0000163012141610169C90703D0016921F070
:1020C00001010161F0BD000000000140000400407A
:1020D00000080040000C00400004014000400140A6
:1020E000004401400048014000180040001C00402E
:1020F0000020004010B5806B0021C185C184FFF72E
:1021000035FA10BD01680C3151E8002F22F49072AD
:1021100041E80023002BF5D10168143151E8002F6C
:1021200022F0010241E80023002BF5D1016B0129C7
:1021300009D101680C3151E8002F22F0100241E86A
:102140000023002BF5D1202180F8421000210163EB
:10215000704708B590F84210222901D0022008BD2E
:1021600082684FF480539A4201D1016921B1816A9A
:102170009A421BD04AB10AE00268816A5268C2F3EF
:1021800008020A80816A891C08E0026972B102684B
:10219000526802F07F020A70816A491C8162C18D17
:1021A000491E0904090CC18503D01BE0026852686E
:1021B000F1E70168CA6822F02002CA600168CA68B3
:1021C00022F48072CA6001684A6922F001024A6101
:1021D000202180F8421000214163026B012A03D0C4
:1021E000FFF7DEFB002008BD016301680C3151E8F8
:1021F000002F22F0100241E80023002BF5D10168E6
:102200000A68D20602D50A6849680091818DFFF7F5
:10221000ACF9E7E770B5044600680169E26821F4AB
:102220004051114301612169A068E2690843616975
:10223000114308432168CA6849F20C639A43024378
:10224000CA6020684169A26921F44071114341616B
:1022500031492068884202D03049884202D1FEF7D5
:1022600077FE01E0FEF764FEE26900231921642590
:102270003226B2F5004F626828D0A0FB0101930F0F
:102280009200FDF7F9FF0146B0FBF5F06FF0180280
:10229000504301EB800006EB0010B0FBF5F000F0BE
:1022A000F002B1FBF5F002EB0012B1FBF5F06FF0BC
:1022B0001803584301EB800006EB0010B0FBF5F06B
:1022C00000F00F0021681044886070BDA0FB010180
:1022D00092185B41FDF7D0FF0146B0FBF5F002011B
:1022E000B1FBF5F06FF01803584301EB800006EBEB
:1022F000C000B0FBF5F000F0F80002EB4002B1FBCB
:10230000F5F0584301EB800006EBC000B0FBF5F0A0
:1023100000F00700D6E70000001001400014014063
:1023200081628285C28500214164222180F84210A9
:10233000016921B10168CA6842F48072CA6001680B
:102340004A6942F001024A610068C16841F0200117
:10235000C1600020704700000148FFF709B9000084
:10236000900100200148FFF703B90000D8010020C8
:10237000FEE70907090E002804DB00F1E02080F8E1
:102380000014704700F00F0000F1E02080F8141DE9
:10239000704700002DED068BFEF752FCFFF7E6FDBF
:1023A000FFF752FBFFF7DAFBFFF79CFBFFF7F2FBAF
:1023B000FFF7B8FBDFED798AB0EE688AB0EE481A15
:1023C0009FED779AF0EE490A9FED760AFFF77CFCC5
:1023D000C320FEF717FAB0EE481ADFED730AB0EE2D
:1023E000480AFFF771FC40F2E3342046FEF70AFA90
:1023F000FFF70EFCFFF744FC2046FEF703FAB0EEB1
:10240000481AF0EE490AB0EE480AFFF75DFC40F2C8
:10241000CB70FEF7F7F9FFF7FBFB0020FEF740F962
:10242000012262496248FFF7F3FA0520FEF7EAF954
:102430005E490122C91C5E48FFF7A4FA5B4CA06804
:102440000028FCD000209FED5B9B9FED5CAB4FF420
:10245000FA756060A06800287ED0A068962808DB26
:10246000A068AA2805DCE068642802DBE06882280E
:1024700073DDA068822829DBA068BE2826DCE0681E
:102480005A2823DBE068962820DCE068783800F0E2
:1024900012FB53EC192B00F087F900F0ABF808EEB3
:1024A000100AA068C0F1A00000F005FB53EC1A2B45
:1024B00000F018FB00F09EF800EE100AB0EE681A6B
:1024C000F0EE480AFFF700FCF52051E0A068732801
:1024D0002ADBA068CD2827DCE0684B2824DBE068F5
:1024E000A52821DCE068783800F0E5FA53EC192BD8
:1024F00000F05AF900F07EF808EE100AA068C0F16A
:10250000A00000F0D8FA53EC1A2B00F0EBFA00F020
:1025100071F800EE100AB0EE681AF0EE480AFFF704
:10252000D3FB40F2271023E0E068783800F0C3FACC
:1025300053EC192B00F038F900F05CF808EE100AA3
:10254000A068C0F1A00000F0B6FA53EC1A2B00F01E
:10255000C9FA00F04FF801E011E016E000EE100AB1
:10256000B0EE681AF0EE480AFFF7AEFB40F28110B9
:10257000FEF748F9FFF74CFB2846FEF743F9606881
:10258000401C60600328FFF665AF0E4C20212046FA
:10259000FEF742FA2846FEF735F9F7E7000000009B
:1025A00000002042000020C200002842000000205D
:1025B000D80100200000000000001C4000000000C6
:1025C0000000C03F0008024010B500290AD008787A
:1025D000002807D005487844FEF71AF8002801D0F3
:1025E000002010BD0248784410BD00003A0A0000E7
:1025F000320A000021F00042A2F16052B2F5801FC1
:1026000001F0004328BFD2F17F6C0BD95FEA001CB8
:1026100043EAC20242EB507018BF704728BF20F057
:1026200001007047B2F5801FBCBF184670474FEAE3
:10263000410C1CF5001F02D2084600F0B1BC70B579
:1026400000F0FAFA00000089FFF7F6BF4FF00040F3
:10265000A0F580007047000010B591EA030F48BF55
:1026600083F0004300F14483841A71EB030C05D21C
:10267000121943EB0C03001B61EB0C01DFF824E1A2
:102680004FEA1154A4EB135C1EEA430F18BF9EEAF5
:10269000445F73D023EA0E03DCF1200E21EA0451DB
:1026A00043F4801332D322FA0CFE10EB0E0023FA0F
:1026B0000CFE41EB0E01CCF1200E03FA0EFE10EBE6
:1026C0000E0051F10001B1F5801FCCF1200E32D285
:1026D00001EB045112FA0EF2BDE8104058BF7047EA
:1026E000401C38BF5FEA420218BF7047002814BF81
:1026F00020F0010041F100014FEA410313F5001FF2
:1027000038BF7047A1F1C04100F0E4BA012A43EBA1
:102710000302ACF1200CDCF11F0E32BF4FF0000EB3
:1027200023FA0CF310EB030041EB0451B4EB115FFF
:10273000D0D0A1EB045101F5801149085FEA3000C7
:1027400001EB04510ED350F1000038BF12FA0EFE17
:1027500008D1BDE81040C9E7401C38BF5FEA42021B
:10276000CAD1C3E7BDE810404FEA410313F5001F8B
:1027700038BF7047A1F1C04100F0ACBA9EEA445F97
:1027800008D011EA5E0FBDE8104004BF01F000411F
:1027900000207047BDE8104070B500F04DFA00BF52
:1027A00064FBBE3E0000E0FF2DE9C04130B4DFF81D
:1027B000A0C23CEA111418BF3CEA131400F0EC80EC
:1027C00081EA03051CEA111444EAD57418BF1CEA17
:1027D000131500F0C780A4EB05044FF0004545EA4F
:1027E000C12145EAC32341EA505143EA525304F15F
:1027F0007F74994204F500344FEAC0204FEAC222A8
:1028000008BF904200F09C804FEA13650FF240161B
:10281000765D4FEA134506FB05F7C7F1807706FBA7
:1028200007F74FEAD737A7FB03687642C8F5803829
:10283000A7FB06CE38BFA8F1010807FB08E64FF05A
:10284000000EA6FB028CE6FB03CEDCF1000CCEF101
:10285000004E38BFAEF1010EA6FB0C584FF000073A
:102860004FF00005E6FB0E87A1FB08C6A0FB07CED4
:1028700016EB0E0645F10005E1FB076515F1E04E8C
:102880007EBFA4F580345FEA46066D4116F18007ED
:1028900045F100054FEA17274FEA066647EA056744
:1028A000A6F1DE46B6F1805F4FEA15251FD93846FE
:1028B00024F0010C05EBC471BCF1FE6F01EB0C11AF
:1028C00002D8F0BCBDE8008124425CBF01F5801E47
:1028D0009EEAC47F02D4F0BCBDE80081244238D413
:1028E000F0BCA1F1C041BDE8004100F0F3B94FEAEE
:1028F000D22242EA43524FEAD323A7FB02864FEA91
:10290000D02040EA415007FB03661EEA0E0F4FEA53
:10291000D12105FB026658BFA6EB0056B6EB005668
:102920004FEA520E4EEAC37E18EB0E0E56EB530ED4
:10293000BDD518EB02085E417F1C55F10005B6E7D6
:102940004FF480154FF000074FF000064FF00008DD
:10295000ADE7F0BC4FF0000001F1C04101F00041D3
:10296000BDE8008111EA0C1F0CEA131500D00CE041
:1029700013EA0C1F00F025804FF00000F0BC81EA44
:10298000030101F00041BDE80081F0BCBDE8004159
:1029900081EA030100F09EB9F0BCBDE8004170B5CA
:1029A00000F04AF9097EFC3E00F007B881EA030115
:1029B0004FF0000001F00041704781EA030100F090
:1029C00089B9F0BCBDE800414FF0000021497047D3
:1029D000FFFDFBF9F7F5F4F2F0EEEDEBE9E8E6E4E4
:1029E000E3E1E0DEDDDBDAD8D7D5D4D3D1D0CFCD6B
:1029F000CCCBCAC8C7C6C5C4C2C1C0BFBEBDBCBBA4
:102A0000BAB9B8B7B6B5B4B3B2B1B0AFAEADACAB9E
:102A1000AAA9A8A8A7A6A5A4A3A3A2A1A09F9F9E78
:102A20009D9C9C9B9A99999897979695959493932A
:102A3000929191908F8F8E8E8D8C8C8B8B8A8989C1
:102A40008888878786858584848383828281818044
:102A50000000FF070000F87F4FEA41034FEA53539D
:102A6000A3F58063D3F11E03C8BFD3F1210C0CDDA5
:102A70004FF0004242EAC12242EA505232FA03FCCD
:102A80008CEAE17CACEBE1707047102BC4BF0020F6
:102A9000704703F5787CBCF1FF3F04D06FF0004233
:102AA00082EA2100704770B500F0C6F84992248090
:102AB00000207047F2E710F0004248BF4042B0FAF1
:102AC00080F310FA03F10AD0C3F11D0303F580630C
:102AD0004FEA415002EB035202EBD12170474FF015
:102AE00000007047DFF848C170B51CEA111E1EBF18
:102AF0001CEA13159EEA0C0F95EA0C0F00F06F808C
:102B000081EA030423EA4C134EEAD47E21EA4C11F5
:102B100041F4801143F48013AE44A1FB024CA0FBAE
:102B20000365AEF17F7E361955EB0C05A1FB034C16
:102B30004CF10003A0FB021C16EB0C06654153F19F
:102B40000003094218BF46F0010613F4007F0BD1C1
:102B50004FEA03314FEA0530340341EA155140EAA8
:102B600016506FF003020AE04FEAC3214FEAC52076
:102B7000F40241EA555140EA56506FF0020202EB6E
:102B80002E4201EB025585EACE710AD05FEA440C71
:102B900018BF24F0004450F1000041F1000120EA88
:102BA000D47040F2FE7C624500D270BDA84214BFD2
:102BB0004FF080444FF04044002E08BF0024BEF187
:102BC000806FA8BFA1F1C041BDE8704080F2828053
:102BD0004FF0000001F1C04101F0004170479EEA52
:102BE0000C0F0CEA131518BF95EA0C0F06D04FF026
:102BF000000081EA030E0EF0004170BD00F01CF8E9
:102C00008900013E00F007B800F009B84FEA430C14
:102C10005FEA5C5C08D081EA030100F05BB84FEA30
:102C2000410C5FEA5C5CF6D14FF00000014970474F
:102C30000000FF070000F87F0EF1020E2EF0030ED9
:102C40005EF8046B364205D4012A43EB030515F503
:102C5000001F12D8012841EB010C1CF5001F0CD8F5
:102C60000ED14FEAD17C15F5001F0CEB4C0C0CF18A
:102C7000020C08BF4CEBD37C04E04FF0080C01E0E1
:102C80004FEAD37C0CEB4C0526FA05F606F0070656
:102C9000B6F1040C06D20EEB860CBDE870404CF089
:102CA000010C6047DFE80CF0090B02024FF0004115
:102CB0004FF00000A1F5002170BD19461046012813
:102CC00051EB010418BFD4F5001484BF002001F0BB
:102CD000004170BD0808A0F500114FEA31017047AE
:102CE00010B591EA030F48BF83F000433FF5BCAC39
:102CF000841A71EB030C07D212198CF0004C43EBD1
:102D00000C03001B61EB0C01DFF8A4E14FEA115446
:102D1000A4EB135C1EEA430F18BF9EEA445F00F069
:102D2000B08023EA6E03524221EA0451C3EB6E03E2
:102D300038BF5B1EDCF1200E25D322FA0CFE10EB0F
:102D40000E0043FA0CFE41EB0E01CCF1200E03FA0B
:102D50000EFE10EB0E0051F10001CCF1200E29D433
:102D600012FA0EF201EB0451BDE8104058BF704753
:102D7000401C1CBFB2F1004F704700280CBF491C1B
:102D800020F00100704712EB020E43EB030218BF64
:102D90004FF0010E4EEA4202ACF1200CDCF11E0EA7
:102DA00054D943FA0CFE10EB0E0051F1FF31CCF177
:102DB0001E0ED5D50EF1010E12FA0EFE404141EB6A
:102DC000010101EB445C5FEA5C5C10D910EBDE7042
:102DD00001EB045138BFBEF1004FBDE8104018BFF1
:102DE000704700280CBF491C20F00100704730D20A
:102DF0004FEAD42C11F5001124F400641BD0B1FA71
:102E000081F20B3AA41AA41ED2F12003914030FAA9
:102E100003F31943904001EBCC71002C01EB0451FA
:102E2000BDE81040A8BF704701F1C0414FF000005D
:102E300001F000417047B0FA80F310FA03F100D1BD
:102E400010BDE41A173C4805C90AE4E701EB045138
:102E500010BD491001EB0451BDE810404FEA3000AD
:102E600002E04FF0000170474A0008BF0042F8D06E
:102E7000B2F5001F28BF704701F000414FF000007D
:102E800070479EEA445F07D011EA5E0FBDE810402C
:102E900004BF002100207047BDE8104070B5FFF767
:102EA000CBFE00BF40DFF63E83F000411046704786
:102EB0000000E0FF43004FEAD30C4FEA3C0C4340D4
:102EC0001FBF40070CF1605113F0FE4F70471CF01C
:102ED000006F03D100200CF0004170470CF000435C
:102EE00043EA507010B540EACC0000F00EF800BF85
:102EF000000000924FEA0001FFF7ECBE4FF00041E6
:102F00004FF00000A1F5002170470EF1020E2EF0E7
:102F1000030E5EF8044B244204D44FEA4102B2F19E
:102F20007F4F11D84FEA4003B3F17F4F0CD80ED139
:102F30004FEAD07CB2F17F4F0CEB4C0C0CF1020C41
:102F400008BF4CEBD17C04E04FF0080C01E04FEAE5
:102F5000D17C0CEB4C0324FA03F404F00704B4F125
:102F6000040C06D20EEB840CBDE810404CF0010CB2
:102F70006047DFE80CF0070802024FF00040A0F5C0
:102F8000800010BD0846420018BFD2F1807288BF91
:102F900000F0004010BD4FF04070E1EE100A7047A5
:102FA000FF2141EAD050C00570470000000000003A
:102FB0000000000000003740000000000000314029
:102FC000D122DBF97E6A3F400000000000000000D3
:102FD00001020304060708090000000001020304BF
:102FE00000000000000000000100000001000000DF
:102FF0002031000800000020B4000000C4010008D7
:10300000D4310008B400002014080000E0010008DA
:103010001001000043000000F8FFFFFF00404040A7
:10302000404040404040414141414140404040409B
:103030004040404040404040404040404005020247
:103040000202020202020202020202020220202006
:103050002020202020202002020202020202909062
:103060009090909010101010101010101010101060
:1030700010101010101010100202020202028888B4
:1030800088888888080808080808080808080808C0
:1030900008080808080808080202020240000000A8
:1030A0000000000000000000000000000000000020
:1030B0000000000000000000000000000000000010
:1030C0000000000000000000000000000000000000
:1030D00000000000000000000000000000000000F0
:1030E00000000000000000000000000000000000E0
:1030F00000000000000000000000000000000000D0
:1031000000000000000000000000000000000000BF
:1031100000000000000000000000000000000000AF
:10312000510000000000000000000000000000004E
:1031300001FE98016B02FE98016B03FE98016B047F
:10314000FE98016B01020303020101FD00006B0008
:1031500000000C8000016B02FD00006B0000000C01
:103160008000016B03FD01006B0000000C8000017A
:103170006B04FD01006B0000000C8000016B01FD81
:1031800001006B0000000C8000016B02FD01006B70
:103190000000000C8000016B03FD00006B000000CC
:1031A0000C8000016B04FD00006B0000000C80002F
:1031B000016B3132332B313233000000010000004B
:1031C00010000000000000000024F40000FF666B07
:0431D00000000000FB
:040000050800018965
:00000001FF
