:020000040800F2
:100000007009002039020008931F0008031B000834
:10001000911F00089F0600087924000800000000D6
:100020000000000000000000000000006320000845
:10003000A1060008000000006120000865200008FB
:10004000530200085302000853020008530200083C
:10005000530200085302000853020008530200082C
:10006000530200085302000853020008530200081C
:10007000530200085302000853020008530200080C
:1000800053020008530200085302000853020008FC
:1000900053020008530200085302000853020008EC
:1000A00053020008530200085302000853020008DC
:1000B00053020008530200085302000853020008CC
:1000C00053020008530200085302000853020008BC
:1000D0005302000861240008530200086D24000840
:1000E000530200085302000853020008530200089C
:1000F000530200085302000853020008530200088C
:10010000530200085302000853020008530200087B
:1001100053020008F1210008530200080D210008D5
:10012000530200085302000853020008530200085B
:10013000530200085302000853020008530200084B
:10014000530200085302000853020008530200083B
:10015000530200085302000853020008530200082B
:10016000530200085302000853020008530200081B
:100170005302000853020008530200080000000068
:10018000530200085302000800F002F800F045F89E
:100190000AA090E8000C82448344AAF10107DA45E2
:1001A00001D100F03AF8AFF2090EBAE80F0013F0EF
:1001B000010F18BFFB1A43F001031847C8230000C2
:1001C000E8230000103A24BF78C878C1FAD8520753
:1001D00024BF30C830C144BF04680C6070470000C1
:1001E0000023002400250026103A28BF78C1FBD840
:1001F000520728BF30C148BF0B6070471FB502F0DF
:10020000AFF900F0F5F804000020002102F092F9A7
:10021000401C60601FBD10B510BD00F0FDF9114617
:10022000FFF7ECFF02F03AF900F029FA03B4FFF708
:10023000F2FF03BC00F02CFA094880470948004748
:10024000FEE7FEE7FEE7FEE7FEE7FEE7FEE7FEE786
:10025000FEE7FEE704480549054A064B70470000E3
:10026000FD200008890100087003002070090020AB
:10027000700500207005002010B500F0B9F8001DD1
:1002800010BD00BFB122000053EA020C00F06980EB
:100290002DE9F04B4FF00006002B1FBFB3FA83F59A
:1002A00003FA05F424FA05F65E4012BF1643B2FACB
:1002B00082F502FA05F4C5F120051EBF22FA05FCFD
:1002C00044EA0C04203556EA044C4FEA144418BFA3
:1002D000641C4FF000084FF00009904271EB030CD2
:1002E00039D3002919BFB1FA81F701FA07F6B0FA3C
:1002F00080F700FA07F6C7F120071EBF20FA07FCB7
:1003000046EA0C062037B6FBF4FCA7EB0507103FC6
:1003100007F01F0BCBF120060CFA0BFB2CFA06F6AC
:1003200044BFB3460026202FA4BF5E464FF0000B0B
:100330005BEA060C08BF4FF0010B19EB0B09ABFB96
:10034000027C48EB0608C01B06FB02CC0BFB03CC6F
:1003500071EB0C01C1E70B46024641464846BDE839
:10036000F08B13B54FF000004FF00001AFF30080A9
:10037000BDE81C40704770B5064600F03DF80468C3
:10038000054630460A22002100F03AF82C6070BD84
:10039000014A00F06DB80000E80000204FF00002B4
:1003A00000B5134694469646203922BFA0E80C506B
:1003B000A0E80C50B1F12001BFF4F7AF090728BF46
:1003C000A0E80C5048BF0CC05DF804EB890028BFC2
:1003D00040F8042B08BF704748BF20F8022B11F0EB
:1003E000804F18BF00F8012B704770477047704767
:1003F0000048704730030020004870471003002079
:100400002DE9F04791460F4680460446002614F831
:10041000015B2DB1FFF730FF0068405DC007F6D1EA
:100420002B2D02D02D2D18D0641E4A463946204669
:1004300000F044F827B13968A14201D1C7F8008023
:100440004FF0020471050BD54042002803DDFFF791
:10045000D3FF0460A007BDE8F08746F48066E4E7B8
:100460000028F8DAFFF7C8FF04606FF00040F2E7F9
:100470002DE9F04115460E46040002D12C6804B95E
:100480000BA4204600F079F80444207870B1274688
:100490003146384600F061F80444207810B100205D
:1004A00004F8010B38462C60BDE8F0810027F9E71D
:1004B0000000000000487047100300202DE9F05FA5
:1004C000824615468B4600270AF10104B94600789A
:1004D000302801D09DB113E014F8010B01277828D2
:1004E00003D0582801D045B10AE00DB1102D07D135
:1004F000002714F8010B102502E0082500E00A256A
:100500000026B0460EE005FB080005FB06F10127BA
:100510001FFA80F801EB1046B6F5803F00D3B946CC
:1005200014F8010B294600F09CF80028EBDABBF127
:10053000000F05D00FB1641E00E05446CBF8004018
:10054000B9F1000F06D0FFF757FF02210160C81E66
:10055000BDE8F09F48EA0640FAE730B503461D784B
:100560001DB10A4603E0AC4201D1181A30BD12F8A1
:10057000014B002CF7D15B1CF1E730B503461D7829
:100580003DB10A4612F8014B1CB1AC42FAD15B1CDA
:10059000F5E7181A30BD00004FF0013C50F8042B6D
:1005A00051F8043B9A4221D1A2EB0C03934313EA86
:1005B000CC1317D150F8042B51F8043B9A4215D1B3
:1005C000A2EB0C03934313EACC130BD150F8042B8A
:1005D00051F8043B9A4209D1A2EB0C03934313EA6E
:1005E000CC13DBD04FF00000704700BFD01A01BA27
:1005F000B1FA81F101F0180122FA01F0CB40C1F10A
:100600002001DBB2C0B2C01A2CFA01F3D11A914317
:1006100011EAC311E6D170477546FFF74BFFAE46AE
:1006200005006946534620F00700854618B020B5FE
:10063000FFF710FEBDE820404FF000064FF0000726
:100640004FF000084FF0000B21F00701AC46ACE87A
:10065000C009ACE8C009ACE8C009ACE8C0098D46E7
:1006600070473A2800D2303820F02002412A01D3C6
:10067000A2F13700884201D34FF0FF30704710B528
:100680000446AFF300802046BDE81040FFF7CEBD22
:1006900001491820ABBEFEE7260002007047FEE7C6
:1006A000704772B6FEE72DE9F0410446876D00F011
:1006B00065F9064694F835000025022806D080200A
:1006C000606584F834500120BDE8F081206801683D
:1006D00021F0160101602068416921F0800141612B
:1006E000206C08B9A06C20B12068016821F00801D5
:1006F00001602068016821F0010101600CE000F058
:100700003DF9801B052807D920206065032084F867
:10071000350084F83450D7E720680068C007EED170
:1007200094F85C103F208840B860012084F83500C0
:1007300084F834500020C7E790F83510022903D020
:100740008021416501207047052180F8351000683F
:10075000016821F0010101600020704770B5044676
:1007600000F00CF90546601C02D0044800780444EF
:1007700000F004F9401BA042FAD370BDD80000205D
:100780002DE9F84FDFF8BCA10022012503264FF028
:100790000F090AF1040BAAF1040E00BF0B6805FA59
:1007A00002F42340A34270D10F7907F00307012F11
:1007B00001D0022F16D187684FEA420806FA08FCDA
:1007C00027EA0C07D1F80CC00CFA08FC4CEA070C1D
:1007D000C0F808C04768A7430C79C4F300149440DC
:1007E0003C4344600C79E443A4070AD0C4684FEA50
:1007F000420C06FA0CF7BC438F6807FA0CF7274344
:10080000C7600C7904F00304022C12D1D40800EB69
:10081000840CDCF820405707FF0E09FA07F824EA99
:100820000804D1F8108008FA07F848EA0408CCF860
:10083000208004684FEA420C06FA0CF7BC430F799B
:1008400007F0030707FA0CF7274307604C6814F416
:10085000403F70D03C4C276847F4804727602468AD
:1008600022F0030704F480440094384C07EB040C96
:10087000DCF8084897074FEA177809FA08F7BC43ED
:10088000334FB84202D1002724E054E0314FB84240
:1008900001D101271EE0304FB84201D1022719E0F3
:1008A0002E4FB84201D1032714E02D4FB84201D199
:1008B00004270FE02B4FB84201D105270AE02A4F49
:1008C000B84201D1062705E0284FB84201D10727D9
:1008D00000E0082707FA08F72743CCF80878DAF889
:1008E00000405746D1F804C09C435FEACC2C00D5A9
:1008F0001C433C60DBF800405F46D1F804C09C43D9
:100900005FEA8C2C00D51C433C60DEF80040774643
:10091000D1F804C09C435FEA8C3C00D51C433C608A
:10092000084F083F3C68D1F804C09C435FEACC3CC8
:1009300000D51C433C60521C102AFFF42FAFBDE8C9
:10094000F88F0000083C014044380240003001406C
:10095000000002400004024000080240000C024077
:10096000001002400014024000180240001C024027
:100970000AB1816170470904FBE700000148806803
:1009800070470000D800002070B5040025D094F80E
:100990003D00002520B984F83C50204600F04EF977
:1009A000242084F83D002068016821F001010160E5
:1009B0002068016841F4004101602068016821F469
:1009C0000041016000F010FB4D4A6168914201D87E
:1009D0004C4900E04C49884201D2012070BD4B498E
:1009E0002368B0FBF1F15E6826F03F060E435E60BF
:1009F0006368934206D94FF4967359434FF47A7360
:100A0000B1FBF3F12368491C1E6A26F03F0631430F
:100A100019626168914210D84900401EB0FBF1F2A2
:100A2000521CC2F30B02042A01D2042022E0B0FBC4
:100A3000F1F0401CC0F30B001CE0A268F2B301EB24
:100A4000C10303EB0116431EB3FBF6F35B1C43F437
:100A500080431B0549D092B301EBC10202EB0111A7
:100A6000401EB0FBF1F0401CC0F30B0040F480408E
:100A700040F400402168CA694CF6FF739A43104362
:100A8000C861D4E9071001432068026822F0C0025F
:100A900011430160D4E9030101432068826848F2F0
:100AA000FF339A4311438160D4E90501084321686B
:100AB000CA6822F0FF021043C86001E00EE016E0B1
:100AC0002068016841F0010101602564202084F85C
:100AD0003D00256384F83E50002070BD01EB4106C7
:100AE000431EB3FBF6F35B1CB3E70120C2E701EB47
:100AF0004101401EB0FBF1F0401CC0F30B00B7E712
:100B0000A086010080841E0000093D0040420F00C5
:100B10002DE9F84F1F4690468A460446DDF8289096
:100B2000FFF72CFF054694F83D0020287FD11923BC
:100B3000012240492046009501F076F8002876D140
:100B400094F83C00012872D0012084F83C00206811
:100B50000168C90703D1016841F001010160206803
:100B6000016821F400610160212084F83D0010201B
:100B700084F83E0000262664C4F824806785608DD2
:100B800020852D48E0622B464A465146204600F01B
:100B9000D1FF90B9206841698069009036E02A460B
:100BA0004946204601F0E6F850B1206C042804D1F3
:100BB0002068016841F4007101600120BDE8F88FF0
:100BC000606A216800780861606A401C6062618D1B
:100BD000491E6185218D491E89B22185226853698C
:100BE000DB435B070BD451B100781061606A401C95
:100BF0006062608D401E6085208D401E20852A46E3
:100C00004946204600F0E4FF0028CED1208D002880
:100C1000C5D154F83D0B016841F4007101602020FA
:100C200004F81E09E67766770020C7E7FFE7022091
:100C3000C4E70000020010000000FFFFF0B587B01D
:100C4000044614216846FFF7A9FB2768234CDFF808
:100C500088C000222149122303250426204810348D
:100C6000674518D10F6847F002070F60096802AFA7
:100C700001F002010591C021CDE9001387E864006D
:100C80006946FFF77DFD206840F400102060206871
:100C900000F400101CE0DFF84CC0674519D10F6864
:100CA00047F002070F60096802AF01F002010591E9
:100CB0004FF44061CDE9001387E864006946FFF70F
:100CC0005FFD206840F480002060206800F4800010
:100CD000059007B0F0BD00000054004030380240DD
:100CE0000004024000580040024881680278114424
:100CF00081607047D80000200B4810B5016841F4AE
:100D000000710160016841F480610160016841F493
:100D100080710160032000F09BF80F2000F006F8BE
:100D200000F050F8002010BD003C024030B50546F0
:100D30001F4887B00024016841F02001016000686D
:100D400006A900F02000009001A800F02DF90498F9
:100D5000A8B100F049F940001649174AB0FBF1F17B
:100D60001648491E026040F2E732C0E90324C0E998
:100D70000114846100F040FB040003D015E000F092
:100D800033F9E9E70D4800F065FB04000DD1372089
:100D900000F030F8102D07D200222946372000F04D
:100DA00037F80748056000E0012407B0204630BD51
:100DB0004038024040420F0000140040C8020020AA
:100DC000DC0000200A4808B5016841F48041016058
:100DD000006800F4804000900548001F016841F061
:100DE00080510160006800F08050009008BD000054
:100DF00044380240002809DB00F01F020121914025
:100E00004009800000F1E020C0F8001170470000A8
:100E1000F0B40E4B1B680C46C3F30223C3F1070565
:100E2000042D00D90425191D072901D2002300E053
:100E3000DB1E012606FA05F1491E214099409E401D
:100E4000761E16403143F0BC01F017BB0CED00E0FC
:100E5000064900F0070208684FF6FF03184040EA11
:100E60000220034A10430860704700000CED00E0C8
:100E70000000FA052DE9F0470E46050065D0DFF8C1
:100E80001481D8F80000F7B200F00700B04207D292
:100E900088F80070D8F8000000F00700B04254D184
:100EA00028683D4C810712D5400703D5206840F4DF
:100EB000E05020602878000703D5206840F46040A7
:100EC00020602068A96820F0F0000843206028789E
:100ED000C0072DD0304968680839012812D002288F
:100EE00013D0032811D00968890700292DDA216859
:100EF00021F0030101432160FFF740FD814641F2EB
:100F0000883A0EE009688903EFE709688901ECE790
:100F1000FFF734FDA0EB0901514502D90320BDE8DC
:100F2000F0872068696800F00C00B0EB810FEFD10A
:100F3000D8F80010404601F00701B14207D9077008
:100F4000006800F00700B04201D00120E7E72878F0
:100F5000400705D52068E96820F4E0500843206088
:100F60002878000706D52068296920F4604040EA07
:100F7000C100206000F058F82168084AC1F303114D
:100F8000515CC8400649086006480068FFF7CEFE7D
:100F90000020C4E7003C0240083802406A250008EF
:100FA000E4000020DC0000200F2202600C4A1368DD
:100FB00003F003034360136803F0F00383601368D6
:100FC00003F4E053C36012684FF4E05303EAD20223
:100FD00002610448006800F00700086070470000E4
:100FE00008380240003C024004480549006809688E
:100FF000044AC1F38221515CC8407047E4000020DC
:10100000083802407A250008044805490068096844
:10101000044AC1F34231515CC8407047E4000020EB
:10102000083802407A250008154810B5006810F00D
:101030000C02144813D04110042A0FD0082A0ED1F4
:101040000F4C241F2268236802F03F025B0207D581
:101050002068C0F38810A0FB010106E0084610BD1F
:101060002168C1F38811A1FB00010023FFF70CF9EF
:101070002168C1F30141491C4900B0FBF1F010BDEA
:10108000083802400024F4002DE9F84F04006ED027
:101090002078DFF84C93C007A9F104054AD009F184
:1010A00004000168C1F38101012908D00068C0F380
:1010B000810002280AD1D9F80000400206D528682C
:1010C000800337D560680028E1D033E06068B0F570
:1010D000803F10D0B0F5A02F286810D020F48030C9
:1010E0002860286820F4802028606068A8B1FFF795
:1010F00045FC06460DE0286840F48030F4E740F4F3
:1011000080202860F7E700BFFFF738FC801B6428C9
:1011100073D828688003F7D50CE0FFF72FFC06464C
:1011200005E000BFFFF72AFC801B6428F0D8286880
:101130008003F7D42078DFF8AC8280074FF0000AF4
:101140003ED5A748001D016811F00C0F08D00068BB
:10115000C0F3810002280BD1D9F80000400207D467
:101160002868800716D5E068012800D112E033E135
:10117000E068B8B10120C8F80000FFF7FFFB0646A1
:1011800005E000BFFFF7FAFB801B0228C0D82868E3
:101190008007F7D52868216920F0F80040EAC100EF
:1011A00028600DE0C8F800A0FFF7E8FB064604E061
:1011B000FFF7E4FB801B02281FD828688007F7D4BC
:1011C0002078000722D5864F87486169703771B152
:1011D00001210160FFF7D2FB064604E0FFF7CEFBDA
:1011E000801B022809D838688007F7D50EE0C0F8C0
:1011F00000A0FFF7C3FB064605E082E0FFF7BEFB59
:10120000801B02287DD838688007F7D420784007F3
:1012100068D5DFF8CCB100270BF13C0BDBF8000000
:10122000C0000BD4DBF8001041F08051CBF8001067
:10123000DBF80000012700F0805000906B4E306812
:10124000C00510D4306840F480703060FFF796FB22
:10125000009005E0FFF792FB0099401A022850D851
:101260003068C005F6D55E4EA0686C3601280FD0F8
:101270000528306810D020F001003060306820F080
:1012800004003060A068B8B1FFF778FB00900FE071
:10129000306840F00100F4E740F004003060F7E708
:1012A000FFF76CFB0099411A41F28830814266D801
:1012B00030688007F4D50EE0FFF760FB009007E090
:1012C000FFF75CFB0099411A41F28830814256D801
:1012D00030688007F4D42FB1DBF8001021F0805182
:1012E000CBF80010A069C8B33D49091D0968C1F3D6
:1012F000810102294AD00228504607D0C8F8600070
:1013000000E03CE0FFF73AFB04463BE04746C8F804
:101310006000FFF733FB064605E000BFFFF72EFB3A
:10132000801B02282BD828688001F7D4D4E9070154
:101330000843A16A2E4A490802EB0141626A41EA68
:101340008211084394F82C1040EA0161C9F800109A
:1013500001203866FFF712FB044606E03EE000BFBE
:10136000FFF70CFB001B022809D828688001F7D57D
:1013700034E000BFFFF702FB001B022802D9032064
:10138000BDE8F88F28688001F4D427E00128F7D061
:10139000D9F80000E26900F4800191421CD1226A70
:1013A00000F03F01914217D147F6C071626A0140D7
:1013B000B1EB821F10D1A26A4FF0FF3300F440312D
:1013C00003EB5202B1EB024F06D194F82C1000F05F
:1013D0007060B0EB016F01D00120D1E70020CFE7B2
:1013E0000438024000004742800E4742007000402F
:1013F0000000FFFF7047704710B5040003D094F859
:101400003D0010B107E0012010BD002084F83C0031
:10141000204600F01EF8022084F83D00211D2068BF
:1014200000F07AFE012084F8460084F83E0084F83B
:101430003F0084F8400084F8410084F8420084F8BA
:10144000430084F8440084F8450084F83D000020FF
:1014500010BD704790F83D10012901D00120704760
:10146000022180F83D100168CA6842F00102CA609A
:1014700000681149884214D0B0F1804F11D00F4953
:1014800088420ED00E4988420BD00E49884208D0BF
:101490000D49884205D00D49884202D00C49884246
:1014A00004D1816801F00701062903D0016841F0E9
:1014B000010101600020704700000140000400406D
:1014C00000080040000C00400004014000400140C2
:1014D0000018004070472DE9F04104460068C668D6
:1014E00005694FF00007A90713D5B10711D5F91EFB
:1014F000016101202077206880698007204602D0A2
:10150000FFF7E8FF04E000F07EF8204600F07CF8EA
:101510002777680716D5700714D521686FF0040087
:101520000861022020772068806910F4407F2046FF
:1015300002D0FFF7CFFF04E000F065F8204600F08E
:1015400063F82777280715D5300713D521686FF082
:1015500008000861042020772068C06980072046C1
:1015600002D0FFF7B7FF04E000F04DF8204600F08E
:101570004BF82777E80616D5F00614D521686FF0EA
:1015800010000861082020772068C06910F4407FAF
:10159000204602D0FFF79EFF04E000F034F820461A
:1015A00000F032F82777E80708D0F00706D0216866
:1015B0006FF001000861204600F028F8280608D5E1
:1015C000300606D521686FF0800008612046FFF7DD
:1015D00011FF680608D5700606D521686FF0400037
:1015E0000861204600F01CF8A8060AD5B00608D508
:1015F00021686FF0200008612046BDE8F041FFF748
:10160000FABEBDE8F08170477047000000680349EA
:10161000884201D1FFF768BB70470000001400400A
:101620007047704770470000F8B5016804460868C5
:10163000CA684B6910F00F0F4FF0000559D003F046
:10164000010602F49077374365D0C10705D0D10574
:1016500003D5616C41F001016164410705D5D907EB
:1016600003D0616C41F002016164810705D5D9079F
:1016700003D0616C41F004016164010707D502F0F9
:101680002001314303D0616C41F008016164616C59
:1016900000293AD0800604D5900602D5204600F0F5
:1016A000DCFD20684069616CC0F38010090700D43C
:1016B00060B3204600F0AAFD20684069400621D5AD
:1016C0002068143050E8001F21F0400140E800126B
:1016D000002AF5D1E06BA8B16E490165E06BFFF718
:1016E0002BF8002811D0E06B016D01B0BDE8F0408F
:1016F000084783060FD593060DD52046BDE8F84070
:1017000000F0ABBD2046FFF78DFFF8BD2046FFF788
:1017100089FF6564F8BD266B2023012E7DD1C606A6
:101720007BD5D60679D508684868009048694FF09F
:101730000206400641D5E16B086840680004000CD1
:10174000E8D0A28D8242E5D9E085C869B0F5807FF6
:101750002DD020680C3050E8001F21F4807140E843
:101760000012002AF5D12068143050E8001F21F043
:10177000010140E80012002AF5D12068143050E839
:10178000001F21F0400140E80012002AF5D184F842
:101790004230256320680C3050E8001F21F0100112
:1017A00040E80012002AF5D1E06BFEF77CFF66638B
:1017B000A08DE18D401A81B22AE0A08DE18D401A02
:1017C00081B2E08D0028A5D00029A3D022680C3278
:1017D00052E8000F20F4907042E80007002FF5D186
:1017E0002068143050E8002F22F0010240E8002762
:1017F000002FF5D184F84230256320680C3050E882
:10180000002F22F0100240E80023002BF5D1666380
:101810002046FFF706FFF8BDFFE705062BD51506A6
:1018200029D594F841002128F5D1A068B0F5805F52
:1018300001D12069B0B1206A411C21622168007881
:101840004860E08C401E0004000CE084E3D1206876
:10185000C16821F08001C1602068C16841F0400189
:10186000C160D8E7206A0088C0F308004860206A99
:10187000801C2062E5E74006CDD55006CBD5CA686E
:10188000204622F04002CA6084F8413000F038F966
:10189000C1E70000FD21000870B5040004D094F8F1
:1018A0004100002510B106E0012070BD84F84050D1
:1018B000204600F023F8242084F841002068C16805
:1018C00021F40051C160204600F028FD2068016924
:1018D00021F4904101612068416921F02A014161B0
:1018E0002068C16841F40051C1606564202084F81B
:1018F000410084F842006563002070BD2DE9F0418D
:1019000086B0044614216846FEF748FD4948484B16
:10191000226800244749103802250326DFF8188181
:101920009A4233D10A6842F480120A60096801F4CD
:1019300080110591016841F004010160016801F026
:1019400004010591016841F008010160006802AAE4
:1019500000F0080005909814CDE90005082782E8FA
:10196000D00069463548FEF70BFF0420CDE900059D
:1019700002AA694682E8D0004046FEF701FF002235
:1019800011463520FFF744FA352026E02C4F072377
:10199000BA4227D12749091D0A6842F010020A609D
:1019A000096801F010010591016841F00101016031
:1019B0000068029400F0010005904FF4C060CDE98A
:1019C0000005CDE9036369461E48FEF7D9FE0022F3
:1019D00011462520FFF71CFA2520FFF70BFA06B069
:1019E000BDE8F081184FBA42F9D10A6842F480226A
:1019F0000A60096801F480210591016841F008013D
:101A000001600068029400F0080005904FF44070F7
:101A1000CDE90005CDE9036369464046FEF7B0FE17
:101A2000002211462720FFF7F3F92720D5E7000011
:101A30000050004040380240000C024000080240C4
:101A400000100140000002400048004090F8423081
:101A5000202B01D00220704721B11AB1002303636B
:101A600000F0E2BC0120704770B5054600681D49D2
:101A7000884213D11C4C2069A0616069E061012299
:101A8000211D1A48FFF7E2FF227919490A2A11D0CD
:101A9000E0783F2802D20A54401CE07015492868BB
:101AA00088421ED1BDE870400F49072234311248E8
:101AB000FFF7CCBFE27800208854E0700FA10C48FB
:101AC000FEF766FC0028E9D0FEF755FC20610BA16B
:101AD0000020FEF75DFC0028E0D0FEF74CFC6061C2
:101AE000DCE770BD0010014000000020380200203B
:101AF0000801002000500040F00100202C000000F0
:101B00007047FEE701684A69D24352050FD46FF46B
:101B100080624A61002140F8301F202242738173A5
:101B2000026942F004020261017301207047002043
:101B300070470000F8B50446C06A1E460D461746B9
:101B4000082807D0012805D010F5803F02D0206B6F
:101B5000122804D12068016841F4807101601346A5
:101B600000224FF001112046009600F05DF840B1D0
:101B700020680068C00502D54FF40070206403207F
:101B8000F8BD2069B0F5804F0ED00620216800EA2C
:101B9000D51040F0F000086133463A460B49204624
:101BA00000F08AF878B902E005F0FE0000E0E8B243
:101BB00021680861054933463A46891F204600F0EE
:101BC0007BF80028DCD00120F8BD000008000100EF
:101BD00070B516460D4604461EE02046FFF792FFFC
:101BE00008B1012070BD681C16D0FEF7C7FE801B2F
:101BF000A84200D885B920684069C04340070BD58A
:101C0000002044F8300F20216173A073216941F056
:101C1000200121612073E4E720684069C043400748
:101C2000DBD4002070BD00002DE9F0479846174630
:101C30000D460446C1F30746DDF820902AE000BFB8
:101C4000B8F1FF3F26D0FEF799FEA0EB0901414510
:101C500002D8B8F1000F1DD12068012E16D080697E
:101C600025EA00000004000C12D00020B84211D177
:101C7000002044F8300F20216173A073216941F0E6
:101C80002001216120730120BDE8F0874069E7E76A
:101C90000120EBE72068012E0AD0806925EA0000C8
:101CA0000004000C06D00020B842C9D00020EBE7A9
:101CB0004069F3E70120F7E72DE9F047984616461B
:101CC0000D4604464FF000094FF0200AC1F30747C4
:101CD00023E020684069C043400515D420680168AE
:101CE00041F40071016021686FF480604861C4F8BC
:101CF000309084F83DA084F83E90216C41F00401BE
:101D0000216484F83C9021E0701C06D0FEF736FE7A
:101D1000A0EB0800B04203D816B1012F1FD021E07C
:101D20002068012F15D0806925EA00000004000C0E
:101D300018D000BF44F8309F84F80DA084F80E90AE
:101D4000216941F02001216184F80C900120BDE857
:101D5000F087406925EA00000004000CEAD1206801
:101D6000406901E02068806925EA00000004000C59
:101D7000AFD1ECE770B516460D4604461EE020468E
:101D8000FFF7C0FE08B1012070BD681C16D0FEF739
:101D9000F5FD801BA84200D885B920684069C04382
:101DA00000060BD5002044F8300F20216173A0738A
:101DB000216941F0200121612073E4E72068406936
:101DC000C0430006DBD4002070BD000070B586B0B3
:101DD00014216846FEF7E2FA21480024016841F028
:101DE00080010160016801F080010591016841F006
:101DF00004010160016801F004010591016841F0EE
:101E000002010160016801F002010591016841F0E1
:101E100008010160016801F008010591016841F0C5
:101E20000101016000680F4E00F0010005900022E2
:101E300020213046FEF79CFD0125CDE9005469467E
:101E400030460294FEF79CFC20200090CDE901541E
:101E5000694630460394FEF793FC06B070BD00005F
:101E600030380240000802400D4810B50B490160AF
:101E70000C49416000214FF480428160C0E90312A7
:101E800041618161C1610162FEF77EFD002803D0DE
:101E9000BDE81040FEF705BC10BD00000054004036
:101EA00048010020A08601000D4810B50B490160D3
:101EB0000C49416000214FF480428160C0E9031267
:101EC00041618161C1610162FEF75EFD002803D0BE
:101ED000BDE81040FEF7E5BB10BD00000058004013
:101EE0009C010020A08601000C4810B50A49016041
:101EF0004FF4E1314160002181600C22C160C0E9F2
:101F000004128161C161FFF7C7FC002803D0BDE85E
:101F10001040FEF7C6BB10BD00500040F00100208D
:101F20000C4810B50A4901604FF4E13141600021CD
:101F300081600C22C160C0E904128161C161FFF7B8
:101F4000ABFC002803D0BDE81040FEF7AABB10BDD3
:101F500000100140380200200C4810B50A49016009
:101F60004FF4E1314160002181600C22C160C0E981
:101F700004128161C161FFF78FFC002803D0BDE826
:101F80001040FEF78EBB10BD0048004080020020CC
:101F9000FEE7FEE77CB500258DF8045010208DF893
:101FA00005006C1E022301AA802113480094FEF74D
:101FB000AFFD0220FEF7D2FBFE218DF80410792040
:101FC0008DF80500022301AA80210B480094FEF73A
:101FD0009FFD0220FEF7C2FB8DF80450A1208DF872
:101FE0000500022301AA802103480094FEF790FD1A
:101FF0000220FEF7B3FB7CBD480100200EB50F2880
:1020000024D806229FED121A02EB80008DF80400FE
:10201000C0EE010A9FED0F1A9FED0F0A00208DF808
:1020200005008DF80600052300EE810ABCEEC00A0B
:1020300010EE101A8DF80710080A8DF80800D01F4E
:10204000009001AA80210548FEF762FD0EBD000048
:1020500000003443CDCCCC43CDCC4C4348010020D0
:10206000704770477047000030B593B03021684624
:10207000FEF794F914210CA8FEF790F91D480025ED
:10208000016841F080510160006800F080501190BB
:102090001948016841F4804101600068022400F49D
:1020A0008040119001200090000401908001CDE952
:1020B000064008AA0420A82182E813000B90684675
:1020C000FEF7E2FF08B172B6FEE70CA90F2081E827
:1020D00031004FF4A0500F904FF480501090052124
:1020E0000CA8FEF7C7FE002801D072B6FEE713B0B9
:1020F00030BD0000403802400070004002480168D6
:1021000041F470010160704788ED00E00148FFF77D
:10211000E2B90000C8020020F0B50268294C2A4D3F
:102120002A4E2B4F2B4B4FF0804CA04209D06045DC
:1021300007D0A84205D0B04203D0B84201D098429F
:1021400004D122F0700E4A6842EA0E02A0421BD06F
:10215000604519D0A84217D0B04215D0B84213D06C
:10216000984211D01C4DA8420ED01C4DA8420BD055
:102170001B4DA84208D01B4DA84205D01A4DA842BD
:1021800002D01A4DA84203D122F44075CA682A43EE
:102190004D6922F080022A4302608A68C2620A689E
:1021A0008262A04201D0984201D1096901630121F4
:1021B00041610169C90703D0016921F00101016191
:1021C000F0BD000000000140000400400008004095
:1021D000000C004000040140004001400044014068
:1021E0000048014000180040001C00400020004052
:1021F0000148FFF719BA0000F001002010B5806B0C
:102200000021C185C184FFF70DFA10BD01680C31B2
:1022100051E8002F22F4907241E80023002BF5D101
:102220000168143151E8002F22F0010241E8002337
:10223000002BF5D1016B012909D101680C3151E85E
:10224000002F22F0100241E80023002BF5D12021BD
:1022500080F8421000210163704708B590F84210E1
:10226000222901D0022008BD82684FF480539A428F
:1022700001D1016921B1816A9A421BD04AB10AE0B9
:102280000268816A5268C2F308020A80816A891C66
:1022900008E0026972B10268526802F07F020A70B7
:1022A000816A491C8162C18D491E0904090CC185DE
:1022B00003D01BE002685268F1E70168CA6822F0A7
:1022C0002002CA600168CA6822F48072CA6001688C
:1022D0004A6922F001024A61202180F8421000215F
:1022E0004163026B012A03D0FFF7BEFB002008BD4B
:1022F000016301680C3151E8002F22F0100241E81F
:102300000023002BF5D101680A68D20602D50A68BD
:1023100049680091818DFFF784F9E7E770B50446BD
:1023200000680169E26821F44051114301612169AB
:10233000A068E26908436169114308432168CA68DB
:1023400049F20C639A430243CA6020684169A2695A
:1023500021F440711143416131492068884202D023
:102360003049884202D1FEF74FFE01E0FEF73CFE05
:10237000E2690023192164253226B2F5004F626814
:1023800028D0A0FB0101930F9200FDF77DFF0146CD
:10239000B0FBF5F06FF01802504301EB800006EB44
:1023A0000010B0FBF5F000F0F002B1FBF5F002EB2D
:1023B0000012B1FBF5F06FF01803584301EB8000F9
:1023C00006EB0010B0FBF5F000F00F0021681044A0
:1023D000886070BDA0FB010192185B41FDF754FFBE
:1023E0000146B0FBF5F00201B1FBF5F06FF0180308
:1023F000584301EB800006EBC000B0FBF5F000F0A5
:10240000F80002EB4002B1FBF5F0584301EB80000D
:1024100006EBC000B0FBF5F000F00700D6E70000C7
:10242000001001400014014081628285C2850021B4
:102430004164222180F84210016921B10168CA6813
:1024400042F48072CA6001684A6942F001024A613E
:102450000068C16841F02001C160002070470000A1
:102460000148FFF7E1B80000380200200148FFF7FB
:10247000DBB8000080020020FEE70907090E0028F3
:1024800004DB00F1E02080F80014704700F00F003A
:1024900000F1E02080F8141D704700002DED028B44
:1024A000FEF72AFCFFF7E0FDFFF790FCFFF738FD91
:1024B000FFF7DAFCFFF750FDFFF716FDFFF7F4FC1E
:1024C000FFF768FD6420FEF749F99FED158A0F209C
:1024D000B0EE480AFFF792FD6420FEF73FF9642052
:1024E000FEF73CF9B0EE480A0020FFF787FD6420B4
:1024F000FEF734F90B4801219FED0B0A0160022120
:102500004160032181600C20FFF778FD6420FEF715
:1025100025F9072205490648FFF798FAFEE700006B
:1025200000002042EC000020000008C2340000201F
:10253000F001002010B500290AD00878002807D043
:1025400005487844FEF728F8002801D0002010BD87
:102550000248784410BD0000620000005A000000EC
:102560004FF04070E1EE100A7047000000000000DC
:102570000000010203040607080900000000010230
:1025800003040000B426000800000020EC00000056
:10259000C4010008A0270008EC0000208408000007
:1025A000E00100081001000043000000F8FFFFFFF9
:1025B0000040404040404040404041414141414056
:1025C000404040404040404040404040404040400B
:1025D000400502020202020202020202020202029A
:1025E000022020202020202020202002020202029F
:1025F00002029090909090901010101010101010F7
:102600001010101010101010101010100202020202
:102610000202888888888888080808080808080846
:102620000808080808080808080808080202020242
:10263000400000000000000000000000000000005A
:10264000000000000000000000000000000000008A
:10265000000000000000000000000000000000007A
:10266000000000000000000000000000000000006A
:10267000000000000000000000000000000000005A
:10268000000000000000000000000000000000004A
:10269000000000000000000000000000000000003A
:1026A000000000000000000000000000000000002A
:1026B0000000000051525A0000000000000000001D
:1026C000000000000000000000000000ECFFFFFF21
:1026D000ECFFFFFF01FE98016B02FE98016B03FE09
:1026E00098016B04FE98016B0000000000000001DF
:1026F000FD00006B0000000C8000006B02FD00007C
:102700006B0000000C8000006B03FD00006B0000FC
:10271000000C8000006B04FD00006B0000000C80CA
:1027200000006B01FD01006B0000000C8000006BDD
:1027300002FD01006B0000000C8000006B03FD0136
:10274000006B0000000C8000006B04FD01006B00BA
:1027500000000C8000006B01FD00006B0000001900
:102760000000006B02FD00006B000000190000007B
:102770006B03FD00006B000000190000006B04FDFE
:1027800000006B000000190000006B000100000059
:1027900010000000000000000024F4000000000011
:040000050800018965
:00000001FF
