:020000040800F2
:1000000040090020390200080D210008C91B000822
:10001000612000089F0600087D29000800000000FC
:100020000000000000000000000000007F22000827
:1000300049070008000000007D220008692500082B
:10004000530200085302000853020008530200083C
:10005000530200085302000853020008530200082C
:10006000530200085302000853020008530200081C
:10007000530200085302000853020008530200080C
:1000800053020008530200085302000853020008FC
:1000900053020008530200085302000853020008EC
:1000A00053020008530200085302000853020008DC
:1000B00053020008530200085302000853020008CC
:1000C00053020008530200085302000853020008BC
:1000D000530200086529000853020008712900082E
:1000E000530200085302000853020008530200089C
:1000F000530200085302000853020008530200088C
:10010000530200085302000853020008530200087B
:1001100053020008F52600085302000811260008C3
:10012000530200085302000853020008530200085B
:10013000530200085302000853020008530200084B
:10014000530200085302000853020008530200083B
:10015000530200085302000853020008530200082B
:10016000530200085302000853020008530200081B
:100170005302000853020008530200080000000068
:10018000530200085302000800F002F800F045F89E
:100190000AA090E8000C82448344AAF10107DA45E2
:1001A00001D100F03AF8AFF2090EBAE80F0013F0EF
:1001B000010F18BFFB1A43F001031847743D0000FC
:1001C000943D0000103A24BF78C878C1FAD852078D
:1001D00024BF30C830C144BF04680C6070470000C1
:1001E0000023002400250026103A28BF78C1FBD840
:1001F000520728BF30C148BF0B6070471FB503F0DE
:1002000000FA00F0E9F904000020002102F012FDDC
:10021000401C60601FBD10B510BD00F0B8F911465C
:10022000FFF7ECFF02F0D6FB00F0E8F903B4FFF7AC
:10023000F2FF03BC00F02CFA094880470948004748
:10024000FEE7FEE7FEE7FEE7FEE7FEE7FEE7FEE786
:10025000FEE7FEE704480549054A064B70470000E3
:100260000126000889010008400300204009002001
:10027000400500204005002053EA020C00F0698090
:100280002DE9F04B4FF00006002B1FBFB3FA83F5AA
:1002900003FA05F424FA05F65E4012BF1643B2FADB
:1002A00082F502FA05F4C5F120051EBF22FA05FC0D
:1002B00044EA0C04203556EA044C4FEA144418BFB3
:1002C000641C4FF000084FF00009904271EB030CE2
:1002D00039D3002919BFB1FA81F701FA07F6B0FA4C
:1002E00080F700FA07F6C7F120071EBF20FA07FCC7
:1002F00046EA0C062037B6FBF4FCA7EB0507103FD7
:1003000007F01F0BCBF120060CFA0BFB2CFA06F6BC
:1003100044BFB3460026202FA4BF5E464FF0000B1B
:100320005BEA060C08BF4FF0010B19EB0B09ABFBA6
:10033000027C48EB0608C01B06FB02CC0BFB03CC7F
:1003400071EB0C01C1E70B46024641464846BDE849
:10035000F08B13B54FF000004FF00001AFF30080B9
:10036000BDE81C40704770B5064600F039F80468D7
:10037000054630460A22002100F036F82C6070BD98
:10038000014A00F069B80000D00000204FF00002E0
:1003900000B5134694469646203922BFA0E80C507B
:1003A000A0E80C50B1F12001BFF4F7AF090728BF56
:1003B000A0E80C5048BF0CC05DF804EB890028BFD2
:1003C00040F8042B08BF704748BF20F8022B11F0FB
:1003D000804F18BF00F8012B704770477047704777
:1003E00000487047DC0200202DE9F04791460F4697
:1003F00080460446002614F8015B2DB100F052F847
:100400000068405DC007F6D12B2D02D02D2D18D0ED
:10041000641E4A463946204600F04CF827B1396838
:10042000A14201D1C7F800804FF0020471050BD53D
:100430004042002803DDFFF7D3FF0460A007BDE8BA
:10044000F08746F48066E4E70028F8DAFFF7C8FF93
:1004500004606FF00040F2E72DE9F04115460E46CA
:10046000040002D12C6804B90BA4204600F081F8E6
:100470000444207870B127463146384600F069F8C8
:100480000444207810B1002004F8010B38462C6099
:10049000BDE8F0810027F9E7000000000048704740
:1004A000DC02002010B500F097F8001D10BD00BF61
:1004B000852700002DE9F05F824615468B46002710
:1004C0000AF10104B9460078302801D09DB113E04B
:1004D00014F8010B0127782803D0582801D045B122
:1004E0000AE00DB1102D07D1002714F8010B1025DB
:1004F00002E0082500E00A250026B0460EE005FBD4
:10050000080005FB06F101271FFA80F801EB1046F1
:10051000B6F5803F00D3B94614F8010B294600F028
:100520005FF80028EBDABBF1000F05D00FB1641EB5
:1005300000E05446CBF80040B9F1000F06D0FFF7B9
:100540004FFF02210160C81EBDE8F09F48EA064047
:10055000FAE730B503461D781DB10A4603E0AC4208
:1005600001D1181A30BD12F8014B002CF7D15B1CD9
:10057000F1E730B503461D783DB10A4612F8014B4C
:100580001CB1AC42FAD15B1CF5E7181A30BD7546B8
:10059000FFF784FFAE4605006946534620F007008A
:1005A000854618B020B5FFF755FEBDE820404FF056
:1005B00000064FF000074FF000084FF0000B21F04D
:1005C0000701AC46ACE8C009ACE8C009ACE8C0091A
:1005D000ACE8C0098D46704700487047FC02002017
:1005E0003A2800D2303820F02002412A01D3A2F16B
:1005F0003700884201D34FF0FF30704710B50446F2
:10060000AFF300802046BDE81040FFF70FBE0000AA
:100610004FF0013C50F8042B51F8043B9A4221D191
:10062000A2EB0C03934313EACC1317D150F8042B1D
:1006300051F8043B9A4215D1A2EB0C03934313EA01
:10064000CC130BD150F8042B51F8043B9A4209D13A
:10065000A2EB0C03934313EACC13DBD04FF0000062
:10066000704700BFD01A01BAB1FA81F101F0180148
:1006700022FA01F0CB40C1F12001DBB2C0B2C01AB6
:100680002CFA01F3D11A914311EAC311E6D1704754
:1006900001491820ABBEFEE7260002007047FEE7C6
:1006A00010B54FF00D0258B32449254801F072FAF5
:1006B000012000F0A7F821490D220D31204801F05A
:1006C00069FA012000F09EF81C490D221A311C48DD
:1006D00001F060FA012000F095F818490D22273149
:1006E000174801F057FA012000F08CF80422154950
:1006F000134801F04FFABDE81040022000F082B824
:100700000E490F48343901F045FA012000F07AF81B
:100710000A490D2227390A4801F03CFA012000F06D
:1007200071F806490D221A39054801F033FA012003
:1007300000F068F801490D220D39D1E7650000206D
:1007400004020020B0000020704772B6FEE72DE9D9
:10075000F0410446876D00F06DF9064694F83500C7
:100760000025022806D08020606584F834500120DE
:10077000BDE8F0812068016821F016010160206861
:10078000416921F080014161206C08B9A06C20B161
:100790002068016821F0080101602068016821F0EB
:1007A000010101600CE000F045F9801B052807D924
:1007B00020206065032084F8350084F83450D7E7A2
:1007C00020680068C007EED194F85C103F20884094
:1007D000B860012084F8350084F834500020C7E761
:1007E00090F83510022903D080214165012070471F
:1007F000052180F835100068016821F001010160D1
:100800000020704770B5044600F014F90546601CDE
:1008100002D004480078044400F00CF9401BA042C8
:10082000FAD370BDA00000202DE9F84FDFF8BCA17D
:100830000022012503264FF00F090AF1040BAAF14B
:10084000040E00BF0B6805FA02F42340A34270D1E6
:100850000F7907F00307012F01D0022F16D1876807
:100860004FEA420806FA08FC27EA0C07D1F80CC048
:100870000CFA08FC4CEA070CC0F808C04768A7430C
:100880000C79C4F3001494403C4344600C79E44375
:10089000A4070AD0C4684FEA420C06FA0CF7BC431E
:1008A0008F6807FA0CF72743C7600C7904F003043C
:1008B000022C12D1D40800EB840CDCF8204057073E
:1008C000FF0E09FA07F824EA0804D1F8108008FAA4
:1008D00007F848EA0408CCF8208004684FEA420C84
:1008E00006FA0CF7BC430F7907F0030707FA0CF779
:1008F000274307604C6814F4403F70D03C4C276895
:1009000047F480472760246822F0030704F48044FA
:100910000094384C07EB040CDCF8084897074FEAC2
:10092000177809FA08F7BC43334FB84202D10027C1
:1009300024E054E0314FB84201D101271EE0304F8E
:10094000B84201D1022719E02E4FB84201D1032746
:1009500014E02D4FB84201D104270FE02B4FB842CD
:1009600001D105270AE02A4FB84201D1062705E048
:10097000284FB84201D1072700E0082707FA08F7F7
:100980002743CCF80878DAF800405746D1F804C07D
:100990009C435FEACC2C00D51C433C60DBF8004054
:1009A0005F46D1F804C09C435FEA8C2C00D51C4301
:1009B0003C60DEF800407746D1F804C09C435FEA13
:1009C0008C3C00D51C433C60084F083F3C68D1F884
:1009D00004C09C435FEACC3C00D51C433C60521CE5
:1009E000102AFFF42FAFBDE8F88F0000083C01404B
:1009F0004438024000300140000002400004024040
:100A000000080240000C02400010024000140240A6
:100A100000180240001C0240426921EA02030A4019
:100A200043EA0241816170470AB18161704709045C
:100A3000FBE700000148806870470000A00000202C
:100A400070B5040025D094F83D00002520B984F845
:100A50003C50204600F050F9242084F83D002068E6
:100A6000016821F0010101602068016841F4004142
:100A700001602068016821F40041016000F012FB70
:100A80004D4A6168914201D84C4900E04C49884286
:100A900001D2012070BD4B492368B0FBF1F15E68C3
:100AA00026F03F060E435E606368934206D94FF41A
:100AB000967359434FF47A73B1FBF3F12368491CE1
:100AC0001E6A26F03F06314319626168914210D8D0
:100AD0004900401EB0FBF1F2521CC2F30B02042A83
:100AE00001D2042022E0B0FBF1F0401CC0F30B0067
:100AF0001CE0A268F2B301EBC10303EB0116431E35
:100B0000B3FBF6F35B1C43F480431B0549D092B35F
:100B100001EBC10202EB0111401EB0FBF1F0401CE1
:100B2000C0F30B0040F4804040F400402168CA69E3
:100B30004CF6FF739A431043C861D4E90710014390
:100B40002068026822F0C00211430160D4E9030169
:100B500001432068826848F2FF339A431143816061
:100B6000D4E9050108432168CA6822F0FF02104356
:100B7000C86001E00EE016E02068016841F0010164
:100B800001602564202084F83D00256384F83E50F0
:100B9000002070BD01EB4106431EB3FBF6F35B1C66
:100BA000B3E70120C2E701EB4101401EB0FBF1F0C9
:100BB000401CC0F30B00B7E7A086010080841E0034
:100BC00000093D0040420F002DE9FF4F83B09A46D7
:100BD000DDE9119793460446DDF84080FFF72AFFD0
:100BE000054694F83D0020287FD119230122404971
:100BF0002046009501F080F8002876D194F83C005A
:100C0000012872D0012084F83C0020680168C907DF
:100C100003D1016841F0010101602068016821F4FD
:100C200000610160212084F83D00402084F83E00EE
:100C300000262664C4F82480A4F82A90608D2085BC
:100C40002C48E062CDE9007553465A462046049987
:100C500000F0D2FF70B930E02A463946204601F054
:100C6000F1F858B1206C042804D12068016841F4DF
:100C700000710160012007B0BDE8F08F606A216853
:100C800000780861606A401C6062218D491E89B24B
:100C90002185628D521E628522685369DB435B07A2
:100CA0000BD469B100781061606A401C6062208DCD
:100CB000401E2085608D401E6085208D0028CBD190
:100CC0002A463946204600F0EBFF0028CAD154F8E6
:100CD0003D0B016841F400710160202004F81E09F9
:100CE000E67766770020C6E7FFE70220C3E700004B
:100CF000020010000000FFFFF0B587B00446142189
:100D00006846FFF743FB2768234CDFF888C00022C2
:100D1000214912230325042620481034674518D1A1
:100D20000F6847F002070F60096802AF01F0020187
:100D30000591C021CDE9001387E864006946FFF7FB
:100D400073FD206840F400102060206800F400105B
:100D50001CE0DFF84CC0674519D10F6847F0020767
:100D60000F60096802AF01F0020105914FF4406184
:100D7000CDE9001387E864006946FFF755FD206858
:100D800040F480002060206800F48000059007B0E7
:100D9000F0BD000000540040303802400004024022
:100DA0000058004002488168027811448160704711
:100DB000A00000200B4810B5016841F400710160EB
:100DC000016841F480610160016841F48071016053
:100DD000032000F09BF80F2000F006F800F050F818
:100DE000002010BD003C024030B505461F4887B0CA
:100DF0000024016841F020010160006806A900F0AC
:100E00002000009001A800F02DF90498A8B100F08E
:100E100049F940001649174AB0FBF1F11648491E3E
:100E2000026040F2E732C0E90324C0E901148461A2
:100E300000F040FB040003D015E000F033F9E9E7CF
:100E40000D4800F065FB04000DD1372000F030F8AC
:100E5000102D07D200222946372000F037F8074826
:100E6000056000E0012407B0204630BD4038024054
:100E700040420F000014004094020020A400002013
:100E80000A4808B5016841F480410160006800F437
:100E9000804000900548001F016841F080510160CA
:100EA000006800F08050009008BD00004438024007
:100EB000002809DB00F01F02012191404009800059
:100EC00000F1E020C0F8001170470000F0B40E4BB4
:100ED0001B680C46C3F30223C3F10705042D00D998
:100EE0000425191D072901D2002300E0DB1E01267D
:100EF00006FA05F1491E214099409E40761E164093
:100F00003143F0BC01F056BD0CED00E0064900F0A5
:100F1000070208684FF6FF03184040EA0220034A20
:100F200010430860704700000CED00E00000FA0577
:100F30002DE9F0470E46050065D0DFF81481D8F89A
:100F40000000F7B200F00700B04207D288F8007046
:100F5000D8F8000000F00700B04254D128683D4C9A
:100F6000810712D5400703D5206840F4E050206087
:100F70002878000703D5206840F46040206020688E
:100F8000A96820F0F000084320602878C0072DD021
:100F9000304968680839012812D0022813D0032884
:100FA00011D00968890700292DDA216821F0030191
:100FB00001432160FFF73EFD814641F2883A0EE091
:100FC00009688903EFE709688901ECE7FFF732FD5B
:100FD000A0EB0901514502D90320BDE8F087206844
:100FE000696800F00C00B0EB810FEFD1D8F8001069
:100FF000404601F00701B14207D90770006800F0D0
:101000000700B04201D00120E7E72878400705D566
:101010002068E96820F4E050084320602878000741
:1010200006D52068296920F4604040EAC1002060AC
:1010300000F058F82168084AC1F30311515CC84018
:101040000649086006480068FFF7CEFE0020C4E7A6
:10105000003C02400838024030360008AC00002056
:10106000A40000200F2202600C4A136803F003035F
:101070004360136803F0F0038360136803F4E053E4
:10108000C36012684FF4E05303EAD20202610448DD
:10109000006800F007000860704700000838024050
:1010A000003C02400448054900680968044AC1F34D
:1010B0008221515CC8407047AC00002008380240D3
:1010C000403600080448054900680968044AC1F32D
:1010D0004231515CC8407047AC00002008380240E3
:1010E00040360008154810B5006810F00C0214488E
:1010F00013D04110042A0FD0082A0ED10F4C241F00
:101100002268236802F03F025B0207D52068C0F323
:101110008810A0FB010106E0084610BD2168C1F35C
:101120008811A1FB00010023FFF7A6F82168C1F395
:101130000141491C4900B0FBF1F010BD08380240E4
:101140000024F4002DE9F84F04006ED02078DFF879
:101150004C93C007A9F104054AD009F104000168C5
:10116000C1F38101012908D00068C0F38100022881
:101170000AD1D9F80000400206D52868800337D587
:1011800060680028E1D033E06068B0F5803F10D09F
:10119000B0F5A02F286810D020F48030286028688F
:1011A00020F4802028606068A8B1FFF743FC064661
:1011B0000DE0286840F48030F4E740F48020286097
:1011C000F7E700BFFFF736FC801B642873D8286858
:1011D0008003F7D50CE0FFF72DFC064605E000BFC5
:1011E000FFF728FC801B6428F0D828688003F7D418
:1011F0002078DFF8AC8280074FF0000A3ED5A74880
:10120000001D016811F00C0F08D00068C0F38100C8
:1012100002280BD1D9F80000400207D428688007C3
:1012200016D5E068012800D112E033E1E068B8B1DA
:101230000120C8F80000FFF7FDFB064605E000BFEF
:10124000FFF7F8FB801B0228C0D828688007F7D575
:101250002868216920F0F80040EAC10028600DE00C
:10126000C8F800A0FFF7E6FB064604E0FFF7E2FB44
:10127000801B02281FD828688007F7D42078000731
:1012800022D5864F87486169703771B101210160AD
:10129000FFF7D0FB064604E0FFF7CCFB801B0228DB
:1012A00009D838688007F7D50EE0C0F800A0FFF72E
:1012B000C1FB064605E082E0FFF7BCFB801B02286D
:1012C0007DD838688007F7D42078400768D5DFF8E4
:1012D000CCB100270BF13C0BDBF80000C0000BD4B5
:1012E000DBF8001041F08051CBF80010DBF8000073
:1012F000012700F0805000906B4E3068C00510D47C
:10130000306840F480703060FFF794FB009005E097
:10131000FFF790FB0099401A022850D83068C005AA
:10132000F6D55E4EA0686C3601280FD005283068CF
:1013300010D020F001003060306820F004003060F0
:10134000A068B8B1FFF776FB00900FE0306840F07E
:101350000100F4E740F004003060F7E7FFF76AFBB4
:101360000099411A41F28830814266D8306880077E
:10137000F4D50EE0FFF75EFB009007E0FFF75AFBA5
:101380000099411A41F28830814256D8306880076E
:10139000F4D42FB1DBF8001021F08051CBF800100D
:1013A000A069C8B33D49091D0968C1F3810102293B
:1013B0004AD00228504607D0C8F8600000E03CE060
:1013C000FFF738FB04463BE04746C8F86000FFF7EC
:1013D00031FB064605E000BFFFF72CFB801B02280F
:1013E0002BD828688001F7D4D4E907010843A16A03
:1013F0002E4A490802EB0141626A41EA8211084320
:1014000094F82C1040EA0161C9F8001001203866F8
:10141000FFF710FB044606E03EE000BFFFF70AFBC3
:10142000001B022809D828688001F7D534E000BFE6
:10143000FFF700FB001B022802D90320BDE8F88F4C
:1014400028688001F4D427E00128F7D0D9F80000FB
:10145000E26900F4800191421CD1226A00F03F0150
:10146000914217D147F6C071626A0140B1EB821F09
:1014700010D1A26A4FF0FF3300F4403103EB520267
:10148000B1EB024F06D194F82C1000F07060B0EB75
:10149000016F01D00120D1E70020CFE704380240DE
:1014A00000004742800E4742007000400000FFFFEE
:1014B0007047704710B5040003D094F83D0010B198
:1014C00007E0012010BD002084F83C00204600F019
:1014D0001EF8022084F83D00211D206801F09EF8CE
:1014E000012084F8460084F83E0084F83F0084F828
:1014F000400084F8410084F8420084F8430084F8F6
:10150000440084F8450084F83D00002010BD704779
:1015100090F83D10012901D001207047022180F888
:101520003D100168CA6842F00102CA6000681149B2
:10153000884214D0B0F1804F11D00F4988420ED0AC
:101540000E4988420BD00E49884208D00D49884286
:1015500005D00D49884202D00C49884204D18168E7
:1015600001F00701062903D0016841F00101016083
:1015700000207047000001400004004000080040C7
:10158000000C0040000401400040014000180040F1
:1015900070472DE9F04104460068C66805694FF0C0
:1015A0000007A90713D5B10711D5F91E0161012064
:1015B0002077206880698007204602D0FFF7E8FF87
:1015C00004E000F07EF8204600F07CF827776807FA
:1015D00016D5700714D521686FF004000861022049
:1015E00020772068806910F4407F204602D0FFF702
:1015F000CFFF04E000F065F8204600F063F827779D
:10160000280715D5300713D521686FF00800086149
:10161000042020772068C0698007204602D0FFF7A9
:10162000B7FF04E000F04DF8204600F04BF82777B4
:10163000E80616D5F00614D521686FF01000086191
:10164000082020772068C06910F4407F204602D02F
:10165000FFF79EFF04E000F034F8204600F032F877
:101660002777E80708D0F00706D021686FF001005F
:101670000861204600F028F8280608D5300606D56F
:1016800021686FF0800008612046FFF711FF6806AF
:1016900008D5700606D521686FF040000861204625
:1016A00000F01CF8A8060AD5B00608D521686FF02E
:1016B000200008612046BDE8F041FFF7FABEBDE812
:1016C000F08170477047000000680349884201D1EB
:1016D000FFF768BB70470000001400407047704778
:1016E00070470000F8B5016804460868CA684B698D
:1016F00010F00F0F4FF0000559D003F0010602F46F
:101700009077374365D0C10705D0D10503D5616C0B
:1017100041F001016164410705D5D90703D0616C2F
:1017200041F002016164810705D5D90703D0616CDE
:1017300041F004016164010707D502F02001314343
:1017400003D0616C41F008016164616C00293AD0FA
:10175000800604D5900602D5204601F000F82068E6
:101760004069616CC0F38010090700D460B3204663
:1017700000F0CEFF20684069400621D52068143073
:1017800050E8001F21F0400140E80012002AF5D186
:10179000E06BA8B16E490165E06BFFF721F8002806
:1017A00011D0E06B016D01B0BDE8F0400847830641
:1017B0000FD593060DD52046BDE8F84000F0CFBF09
:1017C0002046FFF78DFFF8BD2046FFF789FF6564CF
:1017D000F8BD266B2023012E7DD1C6067BD5D6060B
:1017E00079D508684868009048694FF002064006BD
:1017F00041D5E16B086840680004000CE8D0A28D78
:101800008242E5D9E085C869B0F5807F2DD0206897
:101810000C3050E8001F21F4807140E80012002ACB
:10182000F5D12068143050E8001F21F0010140E894
:101830000012002AF5D12068143050E8001F21F072
:10184000400140E80012002AF5D184F842302563B7
:1018500020680C3050E8001F21F0100140E8001211
:10186000002AF5D1E06BFEF772FF6663A08DE18D73
:10187000401A81B22AE0A08DE18D401A81B2E08D3C
:101880000028A5D00029A3D022680C3252E8000F0E
:1018900020F4907042E80007002FF5D12068143042
:1018A00050E8002F22F0010240E80027002FF5D178
:1018B00084F84230256320680C3050E8002F22F075
:1018C000100240E80023002BF5D166632046FFF7A5
:1018D00006FFF8BDFFE705062BD5150629D594F8B8
:1018E00041002128F5D1A068B0F5805F01D12069C1
:1018F000B0B1206A411C2162216800784860E08C08
:10190000401E0004000CE084E3D12068C16821F08F
:101910008001C1602068C16841F04001C160D8E722
:10192000206A0088C0F308004860206A801C20629A
:10193000E5E74006CDD55006CBD5CA68204622F053
:101940004002CA6084F8413000F03DF9C1E7000070
:101950000127000870B5040004D094F84100002568
:1019600010B106E0012070BD84F84050204600F020
:1019700023F8242084F841002068C16821F4005134
:10198000C160204600F04CFF2068016921F49041BD
:1019900001612068416921F02A0141612068C16824
:1019A00041F40051C1606564202084F8410084F84E
:1019B00042006563002070BD2DE9F04186B0044609
:1019C00014216846FEF7E2FC4948484B226800248F
:1019D0004749103802250326DFF818819A4233D18F
:1019E0000A6842F480120A60096801F480110591C6
:1019F000016841F004010160016801F004010591F2
:101A0000016841F008010160006802AA00F00800C6
:101A100005909814CDE90005082782E8D0006946B2
:101A20003548FEF701FF0420CDE9000502AA69460A
:101A300082E8D0004046FEF7F7FE0022114635202E
:101A4000FFF744FA352026E02C4F0723BA4227D16E
:101A50002749091D0A6842F010020A60096801F06E
:101A600010010591016841F00101016000680294D4
:101A700000F0010005904FF4C060CDE90005CDE90C
:101A8000036369461E48FEF7CFFE0022114625205B
:101A9000FFF71CFA2520FFF70BFA06B0BDE8F0812E
:101AA000184FBA42F9D10A6842F480220A600968E4
:101AB00001F480210591016841F00801016000688E
:101AC000029400F0080005904FF44070CDE9000545
:101AD000CDE9036369464046FEF7A6FE00221146A3
:101AE0002720FFF7F3F92720D5E70000005000403A
:101AF00040380240000C0240000802400010014043
:101B0000000002400048004090F84230202B01D0F5
:101B10000220704721B11AB10023036300F006BF11
:101B20000120704710B500681549884210D1012284
:101B300014491548FFF7E8FF124C1449A41EA27877
:101B40000A2A06D060783F2802D20A54401C6070EE
:101B500010BD62780020885460700DA10B48FEF71C
:101B60000FFC0028F4D0FEF7FEFBA06008A10020C7
:101B7000FEF706FC0028EBD0FEF7F5FBE06010BD99
:101B800000480040020000204C020020D400002049
:101B90002C00000090F84130202B01D0022070472B
:101BA00079B172B101628284C28400214164212131
:101BB00080F841100068C16841F08001C1600020D8
:101BC0007047012070477047FEE701684A69D243B9
:101BD00052050FD46FF480624A61002140F8301F33
:101BE000202242738173026942F004020261017390
:101BF00001207047002070472DE9F8430446006833
:101C00000D46DDE9089701689846164641F4807153
:101C100001604B4600224FF001112046009700F072
:101C20006BF848B120680068C00502D54FF4007019
:101C300020640320BDE8F883216805F0FE000861F8
:101C40003B464A461549204600F09EF888B9206870
:101C50004169806900903A464946204600F0F2F812
:101C600048B1206C042804D12068016841F4007157
:101C700001600120DEE7F5B2B8F1010F09D021685B
:101C8000300A08613A464946204600F0DBF8002851
:101C9000E7D1206805610020CCE7000002000100C8
:101CA00070B516460D4604461EE02046FFF78DFF30
:101CB00008B1012070BD681C16D0FEF7BBFE801B6A
:101CC000A84200D885B920684069C04340070BD5B9
:101CD000002044F8300F20216173A073216941F086
:101CE000200121612073E4E720684069C043400778
:101CF000DBD4002070BD00002DE9F0479846174660
:101D00000D460446C1F30746DDF820902AE000BFE7
:101D1000B8F1FF3F26D0FEF78DFEA0EB090141454B
:101D200002D8B8F1000F1DD12068012E16D08069AD
:101D300025EA00000004000C12D00020B84211D1A6
:101D4000002044F8300F20216173A073216941F015
:101D50002001216120730120BDE8F0874069E7E799
:101D60000120EBE72068012E0AD0806925EA0000F7
:101D70000004000C06D00020B842C9D00020EBE7D8
:101D80004069F3E70120F7E72DE9F047984616464A
:101D90000D4604464FF000094FF0200AC1F30747F3
:101DA00023E020684069C043400515D420680168DD
:101DB00041F40071016021686FF480604861C4F8EB
:101DC000309084F83DA084F83E90216C41F00401ED
:101DD000216484F83C9021E0701C06D0FEF72AFEB6
:101DE000A0EB0800B04203D816B1012F1FD021E0AC
:101DF0002068012F15D0806925EA00000004000C3E
:101E000018D000BF44F8309F84F80DA084F80E90DD
:101E1000216941F02001216184F80C900120BDE886
:101E2000F087406925EA00000004000CEAD1206830
:101E3000406901E02068806925EA00000004000C88
:101E4000AFD1ECE770B516460D4604461EE02046BD
:101E5000FFF7BBFE08B1012070BD681C16D0FEF76D
:101E6000E9FD801BA84200D885B920684069C043BD
:101E700000060BD5002044F8300F20216173A073B9
:101E8000216941F0200121612073E4E72068406965
:101E9000C0430006DBD4002070BD000070B586B0E2
:101EA00014216846FEF772FA21480024016841F0C7
:101EB00080010160016801F080010591016841F035
:101EC00004010160016801F004010591016841F01D
:101ED00002010160016801F002010591016841F011
:101EE00008010160016801F008010591016841F0F5
:101EF0000101016000680F4E00F001000590002212
:101F000020213046FEF790FD0125CDE900546946B9
:101F100030460294FEF788FC20200090CDE9015461
:101F2000694630460394FEF77FFC06B070BD0000A2
:101F300030380240000802400D4810B50B490160DE
:101F40000C49416000214FF480428160C0E90312D6
:101F500041618161C1610162FEF772FD002803D019
:101F6000BDE81040FEF7F1BB10BD0000005400407A
:101F700014010020A08601000D4810B50B49016036
:101F80000C49416000214FF480428160C0E9031296
:101F900041618161C1610162FEF752FD002803D0F9
:101FA000BDE81040FEF7D1BB10BD00000058004056
:101FB00068010020A08601000C4810B50A490160A4
:101FC0004FF4E1314160002181600C22C160C0E921
:101FD00004128161C161FFF7BDFC002803D0BDE898
:101FE0001040FEF7B2BB10BD00500040BC01002005
:101FF0000C4810B50A4901604FF4E13141600021FD
:1020000081600C22C160C0E904128161C161FFF7E7
:10201000A1FC002803D0BDE81040FEF796BB10BD20
:1020200000100140040200200C4810B50A4901606C
:102030004FF4E1314160002181600C22C160C0E9B0
:1020400004128161C161FFF785FC002803D0BDE85F
:102050001040FEF77ABB10BD004800404C02002043
:10206000FEE700001CB58DF80000F6208DF8010099
:102070008DF80210100A8DF804208DF803008DF8F9
:10208000053001208DF806006B208DF8070008222E
:1020900069460348FFF77EFD0220FEF7B3FB1CBD37
:1020A0000402002010B5052215491648FFF772FDFD
:1020B0000120FEF7A7FB12490522491D1148FFF731
:1020C00069FD0120FEF79EFB0D4905220A310D48EE
:1020D000FFF760FD0120FEF795FB094905220F314E
:1020E0000848FFF757FD0120FEF78CFB0422064944
:1020F0000448FFF74FFDBDE810400220FEF782BB09
:102100001000002004020020B0000020FEE770B59F
:10211000002404F1B000C0B200F08CF8002000F000
:1021200089F8102000F086F80025002000F094F8CF
:102130006D1CEDB2802DF8D3641CE4B2082CE8D3FA
:1021400070BD10B5C820FEF75DFBBDE8104000F083
:1021500017BC10B50446B031C8B200F06BF81020BF
:1021600040EA141000F066F804F00F00BDE81040DB
:1021700000F060B82DE9F041203A00240D46804679
:10218000D6B27F2803D900208D1C8046EDB2102BDB
:1021900029460FD0FFF7DDFF164906EB460001EB9D
:1021A0004005285D00F058F8641CE4B2062CF8D312
:1021B000BDE8F081FFF7CDFF0F4F00BF04EB061025
:1021C000385C00F049F8641CE4B2082CF6D36D1CAE
:1021D000E9B24046FFF7BDFF5FF0000404EB0610D4
:1021E0003844007A00F038F8641CE4B2082CF5D3C7
:1021F000DEE7000058360008803800082DE9F0417D
:10220000984617460E46044600250DE043463146E3
:102210002046FFF7AFFF0834E4B2782C02D900243F
:10222000B61CF6B26D1CEDB27A5D002AEED1BDE8A7
:10223000F081000001B584B001214FF4807204A840
:102240008DE807000B46002278210248FEF7BCFC0F
:1022500005B000BD1401002001B584B001214FF488
:10226000807204A88DE807000B46402278210248BE
:10227000FEF7AAFC05B000BD1401002070477047AE
:1022800010B501220D490E48FFF784FC0A20FEF725
:10229000B9FA07220B490A48FFF736FC074A002023
:1022A0000849243214180B5C303B13540B18401CA3
:1022B0001B79303BE3700328F4DB10BD00000020E5
:1022C000BC010020990000202DE9F05F2DED068B68
:1022D000F0EE418AB0EE608AF0EE409A18EE900A75
:1022E00001F01EF941EC1A0B944890ED000B944854
:1022F00053EC102B90ED000B51EC100B00F0E2FCB6
:102300000D4645EC110B044653EC1A2B51EC110B06
:1023100000F01EFF39EE889A41EC1A0B19EE100AF4
:1023200001F0FEF853EC1A2B00F0CCFC00F098FC06
:10233000834618EE900A01F0F3F841EC100B45ECDF
:10234000114B53EC102B51EC110B00F001FF38EE48
:10235000698A41EC1A0B18EE100A01F0E1F853EC0F
:102360001A2B00F0AFFC00F07BFC824618EE900ABE
:1023700001F0D6F841EC110B45EC104B53EC112B4E
:1023800051EC100B00F0E4FE41EC1A0B18EE100AB1
:1023900001F0C6F853EC1A2B00F0D8FF00F060FCF7
:1023A000814618EE900A01F0BBF841EC100B45ECA9
:1023B000114B53EC102B51EC110B00F0C9FE41EC0A
:1023C000180B19EE100A01F0ABF853EC182B00F0C3
:1023D000BDFF00F045FC80465A48012290E8F0001D
:1023E0005948834500DA1446824500DA1546002133
:1023F000814500DA0E46804500DA0F46584601F066
:102400008FF841EC100B514890ED001B51EC100B74
:1024100053EC112B00F0FEFC9FED4D8B53EC182B71
:1024200000F096FE9FED4C9B53EC192B00F08EFFB5
:1024300000F048FE002800DA40428346504601F092
:102440006FF841EC100B414890ED001B51EC100B64
:1024500053EC112B00F0DEFC53EC182B00F078FE4F
:1024600000F030FE002800DA40428246484601F083
:1024700057F841EC100B354890ED001B51EC100B58
:1024800053EC112B00F0C6FC53EC182B00F060FE4F
:1024900053EC192B00F05AFF00F014FE002800DA6C
:1024A00040428146404601F03BF841EC100B274882
:1024B00090ED001B51EC100B53EC112B00F0AAFC1B
:1024C00053EC182B00F044FE00F0FCFD002800DA6D
:1024D000404280461FFA8BF2E1B200230120FFF751
:1024E000C1FD0220FEF78EF91FFA8AF2E9B200233D
:1024F0000220FFF7B7FD0220FEF784F91FFA89F2E8
:10250000F1B200230320FFF7ADFD0220FEF77AF9B8
:102510001FFA88F2F9B200230420FFF7A3FD02207E
:10252000FEF770F904220E490E48FFF733FBBDECAD
:10253000068B0220BDE8F05FFEF764B92036000884
:1025400018360008483600086F12833A283600080B
:102550000000000000004E400000000000000040AD
:10256000B0000020040200207047000030B593B096
:1025700030216846FDF70AFF14210CA8FDF706FF7D
:102580001D480025016841F080510160006800F09D
:10259000805011901948016841F480410160006841
:1025A000022400F48040119001200090000401906A
:1025B0008001CDE9064008AA0420A82182E8130082
:1025C0000B906846FEF7BEFD08B172B6FEE70CA997
:1025D0000F2081E831004FF4A0500F904FF480504D
:1025E000109005210CA8FEF7A3FC002801D072B6BC
:1025F000FEE713B030BD00004038024000700040DC
:102600000248016841F470010160704788ED00E004
:102610000148FEF7BEBF000094020020F0B502683A
:10262000294C2A4D2A4E2B4F2B4B4FF0804CA04269
:1026300009D0604507D0A84205D0B04203D0B842C7
:1026400001D0984204D122F0700E4A6842EA0E028C
:10265000A0421BD0604519D0A84217D0B04215D077
:10266000B84213D0984211D01C4DA8420ED01C4D38
:10267000A8420BD01B4DA84208D01B4DA84205D044
:102680001A4DA84202D01A4DA84203D122F4407537
:10269000CA682A434D6922F080022A4302608A6890
:1026A000C2620A688262A04201D0984201D10969DF
:1026B0000163012141610169C90703D0016921F06A
:1026C00001010161F0BD0000000001400004004074
:1026D00000080040000C00400004014000400140A0
:1026E000004401400048014000180040001C004028
:1026F000002000400148FEF7F5BF0000BC010020AB
:1027000010B5806B0021C185C184FEF7E9FF10BDC3
:1027100001680C3151E8002F22F4907241E8002347
:10272000002BF5D10168143151E8002F22F001028D
:1027300041E80023002BF5D1016B012909D1016883
:102740000C3151E8002F22F0100241E80023002B49
:10275000F5D1202180F8421000210163704708B5AF
:1027600090F84210222901D0022008BD82684FF45F
:1027700080539A4201D1016921B1816A9A421BD0EA
:102780004AB10AE00268816A5268C2F308020A800C
:10279000816A891C08E0026972B10268526802F01D
:1027A0007F020A70816A491C8162C18D491E090439
:1027B000090CC18503D01BE002685268F1E701688B
:1027C000CA6822F02002CA600168CA6822F48072D6
:1027D000CA6001684A6922F001024A61202180F83A
:1027E000421000214163026B012A03D0FFF79AF9DE
:1027F000002008BD016301680C3151E8002F22F070
:10280000100241E80023002BF5D101680A68D206C6
:1028100002D50A6849680091818DFEF760FFE7E7FD
:1028200070B5044600680169E26821F44051114323
:1028300001612169A068E2690843616911430843A5
:102840002168CA6849F20C639A430243CA6020684F
:102850004169A26921F44071114341613149206805
:10286000884202D03049884202D1FEF72BFC01E0B9
:10287000FEF718FCE2690023192164253226B2F51F
:10288000004F626828D0A0FB0101930F9200FDF772
:10289000F3FC0146B0FBF5F06FF01802504301EB7A
:1028A000800006EB0010B0FBF5F000F0F002B1FB89
:1028B000F5F002EB0012B1FBF5F06FF0180358438E
:1028C00001EB800006EB0010B0FBF5F000F00F000C
:1028D00021681044886070BDA0FB010192185B4123
:1028E000FDF7CAFC0146B0FBF5F00201B1FBF5F0C3
:1028F0006FF01803584301EB800006EBC000B0FBFB
:10290000F5F000F0F80002EB4002B1FBF5F058439F
:1029100001EB800006EBC000B0FBF5F000F0070013
:10292000D6E700000010014000140140816282855A
:10293000C28500214164222180F84210016921B141
:102940000168CA6842F48072CA6001684A6942F04C
:1029500001024A610068C16841F02001C1600020A5
:10296000704700000148FEF7BDBE000004020020D1
:102970000148FEF7B7BE00004C020020FEE7000051
:10298000FEB50024094F4FF4807501263819CDE9B2
:10299000000601230022782102950548FEF714F96C
:1029A000641CE4B21B2CF1D3FEBD0000B400002077
:1029B000140100200907090E002804DB00F1E020C3
:1029C00080F80014704700F00F0000F1E02080F85C
:1029D000141D70472DED068BFEF7ECF9FFF7C6FDD1
:1029E000FFF75CFAFFF704FBFFF7A6FAFFF71CFB03
:1029F000FFF7E2FAFFF7C0FADFED83AAB0EE6A8ACA
:102A0000B0EE481ADFED818AF0EE680A9FED800A89
:102A1000FFF75AFCC320FDF7F5FEB0EE481ADFEDD4
:102A20007D0AB0EE480AFFF74FFC40F2E33420463F
:102A3000FDF7E8FEFFF736FBFFF722FC2046FDF727
:102A4000E1FEFFF77EFBFFF762FB641D2046FDF70A
:102A5000D9FE2046FDF7D6FE002107236E4A084620
:102A6000FFF7CCFBB0EE481AF0EE680AB0EE480A69
:102A7000FFF72AFC40F2CB70FDF7C4FEFFF712FB14
:102A80000020FDF70DFE644901222A396348FFF753
:102A900081F80520FDF7B6FE5F49012227395F481E
:102AA000FFF732F85C4C2A3CA0680028FCD00020DC
:102AB0009FED5B9B9FED5C8B4FF4FA756060A068A7
:102AC00000287CD0A068962808DBA068AA2805DC2E
:102AD000E068642802DBE068822871DDA068822853
:102AE00029DBA068BE2826DCE0685A2823DBE068E2
:102AF000962820DCE068783800F013FB53EC192BA3
:102B000000F088F900F0ACF80AEE100AA068C0F1F5
:102B1000A00000F006FB53EC182B00F019FB00F0AE
:102B20009FF800EE100AB0EE6A1AF0EE4A0AFFF7BC
:102B3000CBFBF52051E0A06873282ADBA068CD28E4
:102B400027DCE0684B2824DBE068A52821DCE0686E
:102B5000783800F0E6FA53EC192B00F05BF900F03E
:102B60007FF80AEE100AA068C0F1A00000F0D9FAC0
:102B700053EC182B00F0ECFA00F072F800EE100A9B
:102B8000B0EE6A1AF0EE4A0AFFF79EFB40F22710F9
:102B900023E0E068783800F0C4FA53EC192B00F019
:102BA00039F900F05DF80AEE100AA068C0F1A00043
:102BB00000F0B7FA53EC182B00F0CAFA01E013E06A
:102BC00018E000F04DF800EE100AB0EE6A1AF0EED0
:102BD0004A0AFFF779FB40F28110FDF713FEFFF779
:102BE00061FA2846FDF70EFE6068401C606003280D
:102BF000FFF665AF0E4C20212046FDF70DFF28465D
:102C0000FDF700FEF7E70000000000000000204292
:102C1000000020C2000028422A0000204C020020B0
:102C20000000000000001C40000000000000C03F49
:102C30000008024010B500290AD00878002807D003
:102C400005487844FDF7E4FC002801D0002010BDC1
:102C50000248784410BD00000E1300000613000067
:102C600021F00042A2F16052B2F5801F01F0004352
:102C700028BFD2F17F6C0BD95FEA001C43EAC20285
:102C800042EB507018BF704728BF20F0010070471A
:102C9000B2F5801FBCBF184670474FEA410C1CF5C7
:102CA000001F02D2084600F0B1BC70B500F0FAFA7D
:102CB00000000089FFF7F6BF4FF00040A0F580004C
:102CC0007047000010B591EA030F48BF83F000433E
:102CD00000F14483841A71EB030C05D2121943EB03
:102CE0000C03001B61EB0C01DFF824E14FEA1154E7
:102CF000A4EB135C1EEA430F18BF9EEA445F73D037
:102D000023EA0E03DCF1200E21EA045143F4801380
:102D100032D322FA0CFE10EB0E0023FA0CFE41EB2C
:102D20000E01CCF1200E03FA0EFE10EB0E0051F155
:102D30000001B1F5801FCCF1200E32D201EB04511D
:102D400012FA0EF2BDE8104058BF7047401C38BF61
:102D50005FEA420218BF7047002814BF20F001004C
:102D600041F100014FEA410313F5001F38BF7047DE
:102D7000A1F1C04100F0E4BA012A43EB0302ACF137
:102D8000200CDCF11F0E32BF4FF0000E23FA0CF3C3
:102D900010EB030041EB0451B4EB115FD0D0A1EB79
:102DA000045101F5801149085FEA300001EB04513C
:102DB0000ED350F1000038BF12FA0EFE08D1BDE864
:102DC0001040C9E7401C38BF5FEA4202CAD1C3E7DE
:102DD000BDE810404FEA410313F5001F38BF7047AC
:102DE000A1F1C04100F0ACBA9EEA445F08D011EAFC
:102DF0005E0FBDE8104004BF01F0004100207047A5
:102E0000BDE8104070B500F04DFA00BF64FBBE3E57
:102E10000000E0FF2DE9C04130B4DFF8A0C23CEA79
:102E2000111418BF3CEA131400F0EC8081EA03058A
:102E30001CEA111444EAD57418BF1CEA131500F0FB
:102E4000C780A4EB05044FF0004545EAC12145EADF
:102E5000C32341EA505143EA525304F17F7499422B
:102E600004F500344FEAC0204FEAC22208BF904266
:102E700000F09C804FEA13650FF24016765D4FEA32
:102E8000134506FB05F7C7F1807706FB07F74FEA06
:102E9000D737A7FB03687642C8F58038A7FB06CE74
:102EA00038BFA8F1010807FB08E64FF0000EA6FBAB
:102EB000028CE6FB03CEDCF1000CCEF1004E38BFF5
:102EC000AEF1010EA6FB0C584FF000074FF00005C5
:102ED000E6FB0E87A1FB08C6A0FB07CE16EB0E068D
:102EE00045F10005E1FB076515F1E04E7EBFA4F555
:102EF00080345FEA46066D4116F1800745F1000512
:102F00004FEA17274FEA066647EA0567A6F1DE464D
:102F1000B6F1805F4FEA15251FD9384624F0010C21
:102F200005EBC471BCF1FE6F01EB0C1102D8F0BCD3
:102F3000BDE8008124425CBF01F5801E9EEAC47F8B
:102F400002D4F0BCBDE80081244238D4F0BCA1F129
:102F5000C041BDE8004100F0F3B94FEAD22242EA95
:102F600043524FEAD323A7FB02864FEAD02040EA20
:102F7000415007FB03661EEA0E0F4FEAD12105FB05
:102F8000026658BFA6EB0056B6EB00564FEA520E4B
:102F90004EEAC37E18EB0E0E56EB530EBDD518EB62
:102FA00002085E417F1C55F10005B6E74FF480151D
:102FB0004FF000074FF000064FF00008ADE7F0BCFF
:102FC0004FF0000001F1C04101F00041BDE8008177
:102FD00011EA0C1F0CEA131500D00CE013EA0C1FC9
:102FE00000F025804FF00000F0BC81EA030101F001
:102FF0000041BDE80081F0BCBDE8004181EA030169
:1030000000F09EB9F0BCBDE8004170B500F04AF98F
:10301000097EFC3E00F007B881EA03014FF0000092
:1030200001F00041704781EA030100F089B9F0BC6A
:10303000BDE800414FF0000021497047FFFDFBF95A
:10304000F7F5F4F2F0EEEDEBE9E8E6E4E3E1E0DEDB
:10305000DDDBDAD8D7D5D4D3D1D0CFCDCCCBCAC84D
:10306000C7C6C5C4C2C1C0BFBEBDBCBBBAB9B8B774
:10307000B6B5B4B3B2B1B0AFAEADACABAAA9A8A867
:10308000A7A6A5A4A3A3A2A1A09F9F9E9D9C9C9B35
:103090009A999998979796959594939392919190E0
:1030A0008F8F8E8E8D8C8C8B8B8A89898888878771
:1030B0008685858484838382828181800000FF07E6
:1030C0000000F87F4FEA41034FEA5353A3F58063B2
:1030D000D3F11E03C8BFD3F1210C0CDD4FF0004229
:1030E00042EAC12242EA505232FA03FC8CEAE17C05
:1030F000ACEBE1707047102BC4BF0020704703F5A4
:10310000787CBCF1FF3F04D06FF0004282EA2100DE
:10311000704770B500F0C6F84992248000207047CF
:10312000F2E710F0004248BF4042B0FA80F310FAD4
:1031300003F10AD0C3F11D0303F580634FEA415048
:1031400002EB035202EBD12170474FF000007047B1
:10315000DFF848C170B51CEA111E1EBF1CEA13152A
:103160009EEA0C0F95EA0C0F00F06F8081EA0304D1
:1031700023EA4C134EEAD47E21EA4C1141F480112B
:1031800043F48013AE44A1FB024CA0FB0365AEF1F7
:103190007F7E361955EB0C05A1FB034C4CF1000367
:1031A000A0FB021C16EB0C06654153F1000309421B
:1031B00018BF46F0010613F4007F0BD14FEA03312C
:1031C0004FEA0530340341EA155140EA16506FF0DA
:1031D00003020AE04FEAC3214FEAC520F40241EAA4
:1031E000555140EA56506FF0020202EB2E4201EBBD
:1031F000025585EACE710AD05FEA440C18BF24F06C
:10320000004450F1000041F1000120EAD47040F286
:10321000FE7C624500D270BDA84214BF4FF08044CE
:103220004FF04044002E08BF0024BEF1806FA8BFBD
:10323000A1F1C041BDE8704080F282804FF00000F3
:1032400001F1C04101F0004170479EEA0C0F0CEA09
:10325000131518BF95EA0C0F06D04FF0000081EA55
:10326000030E0EF0004170BD00F01CF88900013E15
:1032700000F007B800F009B84FEA430C5FEA5C5C65
:1032800008D081EA030100F05BB84FEA410C5FEA25
:103290005C5CF6D14FF00000014970470000FF0769
:1032A0000000F87F0EF1020E2EF0030E5EF8046BA4
:1032B000364205D4012A43EB030515F5001F12D849
:1032C000012841EB010C1CF5001F0CD80ED14FEA70
:1032D000D17C15F5001F0CEB4C0C0CF1020C08BF57
:1032E0004CEBD37C04E04FF0080C01E04FEAD37CB8
:1032F0000CEB4C0526FA05F606F00706B6F1040CB1
:1033000006D20EEB860CBDE870404CF0010C604715
:10331000DFE80CF0090B02024FF000414FF0000013
:10332000A1F5002170BD19461046012851EB01049A
:1033300018BFD4F5001484BF002001F0004170BD17
:103340000808A0F500114FEA3101704710B591EA65
:10335000030F48BF83F000433FF5BCAC841A71EB08
:10336000030C07D212198CF0004C43EB0C03001B2A
:1033700061EB0C01DFF8A4E14FEA1154A4EB135CFC
:103380001EEA430F18BF9EEA445F00F0B08023EAB4
:103390006E03524221EA0451C3EB6E0338BF5B1E39
:1033A000DCF1200E25D322FA0CFE10EB0E0043FABE
:1033B0000CFE41EB0E01CCF1200E03FA0EFE10EBD9
:1033C0000E0051F10001CCF1200E29D412FA0EF2B8
:1033D00001EB0451BDE8104058BF7047401C1CBFB2
:1033E000B2F1004F704700280CBF491C20F00100CB
:1033F000704712EB020E43EB030218BF4FF0010EB1
:103400004EEA4202ACF1200CDCF11E0E54D943FA14
:103410000CFE10EB0E0051F1FF31CCF11E0ED5D594
:103420000EF1010E12FA0EFE404141EB010101EBDB
:10343000445C5FEA5C5C10D910EBDE7001EB045178
:1034400038BFBEF1004FBDE8104018BF70470028DC
:103450000CBF491C20F00100704730D24FEAD42C39
:1034600011F5001124F400641BD0B1FA81F20B3A7B
:10347000A41AA41ED2F12003914030FA03F3194399
:10348000904001EBCC71002C01EB0451BDE81040E1
:10349000A8BF704701F1C0414FF0000001F00041AA
:1034A0007047B0FA80F310FA03F100D110BDE41AAE
:1034B000173C4805C90AE4E701EB045110BD491067
:1034C00001EB0451BDE810404FEA300002E04FF03C
:1034D000000170474A0008BF0042F8D0B2F5001F53
:1034E00028BF704701F000414FF0000070479EEA8E
:1034F000445F07D011EA5E0FBDE8104004BF002111
:1035000000207047BDE8104070B5FFF7CBFE00BF4C
:1035100040DFF63E83F00041104670470000E0FFB8
:1035200043004FEAD30C4FEA3C0C43401FBF400717
:103530000CF1605113F0FE4F70471CF0006F03D187
:1035400000200CF0004170470CF0004343EA50703B
:1035500010B540EACC0000F00EF800BF0000009269
:103560004FEA0001FFF7ECBE4FF000414FF00000C2
:10357000A1F5002170470EF1020E2EF0030E5EF849
:10358000044B244204D44FEA4102B2F17F4F11D8D8
:103590004FEA4003B3F17F4F0CD80ED14FEAD07CF5
:1035A000B2F17F4F0CEB4C0C0CF1020C08BF4CEB52
:1035B000D17C04E04FF0080C01E04FEAD17C0CEB29
:1035C0004C0324FA03F404F00704B4F1040C06D20B
:1035D0000EEB840CBDE810404CF0010C6047DFE8B6
:1035E0000CF0070802024FF00040A0F5800010BD6B
:1035F0000846420018BFD2F1807288BF00F0004038
:1036000010BD4FF04070E1EE100A7047FF2141EA13
:10361000D050C00570470000000000000000374097
:103620000000000000003140D122DBF97E6A3F40FB
:103630000000000000000000010203040607080962
:103640000000000001020304000000000000000070
:103650000100000001000000000000000000000068
:10366000002F000000000700070000147F147F14E3
:1036700000242A7F2A120062640813230036495569
:10368000225000000503000000001C224100000041
:1036900041221C000014083E08140008083E0808D7
:1036A000000000A060000008080808080000606032
:1036B0000000002010080402003E5149453E000071
:1036C000427F4000004261514946002141454B3153
:1036D000001814127F10002745454539003C4A491F
:1036E0004930000171090503003649494936000691
:1036F0004949291E000036360000000056360000F9
:103700000008142241000014141414140000412273
:10371000140800020151090600324959513E007C4B
:103720001211127C007F49494936003E4141412235
:10373000007F4141221C007F49494941007F09091E
:103740000901003E4149497A007F0808087F0000CE
:10375000417F4100002040413F01007F0814224189
:10376000007F40404040007F020C027F007F040841
:10377000107F003E4141413E007F09090906003E9D
:103780004151215E007F09192946004649494931C6
:103790000001017F0101003F4040403F001F2040E9
:1037A000201F003F4038403F0063140814630007A7
:1037B0000870080700615149454300007F414100FE
:1037C00000552A552A55000041417F00000402019E
:1037D000020400404040404000000102040000207C
:1037E00054545478007F48444438003844444420BA
:1037F00000384444487F00385454541800087E0967
:1038000001020018A4A4A47C007F0804047800002E
:10381000447D4000004080847D00007F10284400EB
:103820000000417F4000007C04180478007C0804FC
:10383000047800384444443800FC24242418001838
:10384000242418FC007C0804040800485454542024
:1038500000043F444020003C4040207C001C2040AD
:10386000201C003C4030403C004428102844001CF0
:10387000A0A0A07C004464544C44141414141414E8
:103880000000000000000000000000000000000038
:10389000000000F8000000000000003330000000CD
:1038A00000100C06100C06000000000000000000D4
:1038B00040C07840C0784000043F04043F04040046
:1038C000007088FC08300000001820FF211E000056
:1038D000F008F000E018000000211C031E211E006B
:1038E00000F00888700000001E21232419272110F1
:1038F00010160E0000000000000000000000000094
:10390000000000E01804020000000007182040003A
:1039100000020418E000000000402018070000002A
:10392000404080F0804040000202010F010202008E
:10393000000000F0000000000101011F0101010072
:10394000000000000000000080B0700000000000D7
:103950000000000000000000000101010101010160
:1039600000000000000000000030300000000000F7
:1039700000000000806018040060180601000000CC
:1039800000E010080810E000000F102020100F00C9
:10399000001010F8000000000020203F2020000050
:1039A00000700808088870000030282422213000A8
:1039B00000300888884830000018202020110E00B0
:1039C0000000C02010F8000000070424243F240059
:1039D00000F80888880808000019212020110E002E
:1039E00000E0108888180000000F112020110E0040
:1039F00000380808C83808000000003F0000000038
:103A00000070880808887000001C222121221C00F8
:103A100000E010080810E0000000312222110F0021
:103A2000000000C0C00000000000003030000000B6
:103A30000000008000000000000080600000000026
:103A4000000080402010080000010204081020003F
:103A5000404040404040400004040404040404008A
:103A6000000810204080000000201008040201001F
:103A7000007048080808F00000000030360100001F
:103A8000C030C828E810E0000718272423140B00D2
:103A90000000C038E0000000203C2302022738204C
:103AA00008F8888888700000203F202020110E0030
:103AB000C030080808083800071820202010080027
:103AC00008F808080810E000203F202020100F0010
:103AD00008F88888E8081000203F202023201800DC
:103AE00008F88888E8081000203F20000300000044
:103AF000C03008080838000007182020221E0200E5
:103B000008F808000008F808203F210101213F20A3
:103B1000000808F8080800000020203F20200000CE
:103B200000000808F8080800C08080807F000000BE
:103B300008F888C028180800203F200126382000F7
:103B400008F8080000000000203F2020202030005E
:103B500008F8F800F8F80800203F003F003F200078
:103B600008F830C00008F808203F200007183F0080
:103B7000E01008080810E0000F10202020100F00AF
:103B800008F808080808F000203F210101010000A2
:103B9000E01008080810E0000F18242438504F00E7
:103BA00008F8888888887000203F2000030C3020A7
:103BB00000708808080838000038202121221C00E5
:103BC000180808F8080818000000203F200000002E
:103BD00008F808000008F808001F202020201F0017
:103BE0000878880000C83808000007380E01000077
:103BF000F80800F80008F800033C0700073C030041
:103C0000081868808068180820302C03032C3020A6
:103C10000838C800C83808000000203F2000000015
:103C200010080808C838080020382621202018006D
:103C3000000000FE020202000000007F4040400041
:103C4000000C30C000000000000000010638C00079
:103C500000020202FE000000004040407F00000021
:103C60000000040202020400000000000000000046
:103C70000000000000000000808080808080808044
:103C8000000202040000000000000000000000002C
:103C900000008080808000000019242222223F2022
:103CA00008F8008080000000003F112020110E0065
:103CB0000000008080800000000E112020201100F4
:103CC000000000808088F800000E112020103F20A6
:103CD0000000808080800000001F2222222213002A
:103CE000008080F0888888180020203F2020000075
:103CF0000000808080808000006B9494949360002A
:103D000008F8008080800000203F210000203F2034
:103D100000809898000000000020203F2020000034
:103D2000000000809898000000C08080807F000024
:103D300008F8000080808000203F24022D30200001
:103D4000000808F8000000000020203F20200000AC
:103D50008080808080808000203F20003F20003FC6
:103D60008080008080800000203F210000203F20D4
:103D70000000808080800000001F202020201F0085
:103D8000808000808000000080FFA12020110E00B4
:103D90000000008080808000000E112020A0FF80A5
:103DA000808080008080800020203F212000010052
:103DB00000008080808080000033242424241900A7
:103DC000008080E0808000000000001F20200000B4
:103DD0008080000000808000001F202020103F20F5
:103DE000808080000080808000010E300806010085
:103DF00080800080008080800F300C030C300F002A
:103E000000808000808080000020312E0E31200054
:103E1000808080000080808080818E701806010084
:103E200000808080808080000021302C22213000A2
:103E300000000000807C020200000000003F4040C3
:103E400000000000FF00000000000000FF00000074
:103E50000002027C800000000040403F00000000A3
:103E6000000601010202040400000000000000003E
:103E700004E4242464A4243F24A4642424E404004B
:103E80000000000000000000000000000000000032
:103E900000FF00080909097F09090948807F00001F
:103EA0000000000000000000000000000000000012
:103EB0001010D0FF90100202FE0202625AC60000EB
:103EC00000000000000000000000000000000000F2
:103ED000040300FF0043308F80432C102C438000EC
:103EE00000000000000000000000000000000000D2
:103EF00000ECAAA9A8AAEC00DF2424A2A2380000A2
:103F000000000000000000000000000000000000B1
:103F1000806F020222CA0F0027C9090828CE0000BC
:103F20000000000000000000000000000000000091
:103F30006040000800000020D4000000C401000818
:103F400034410008D40000206C080000E0010008A3
:103F50001001000043000000F8FFFFFF0040404058
:103F6000404040404040414141414140404040404C
:103F700040404040404040404040404040050202F8
:103F800002020202020202020202020202202020B7
:103F90002020202020202002020202020202909013
:103FA0009090909010101010101010101010101011
:103FB0001010101010101010020202020202888865
:103FC0008888888808080808080808080808080871
:103FD0000808080808080808020202024000000059
:103FE00000000000000000000000000000000000D1
:103FF00000000000000000000000000000000000C1
:1040000000000000000000000000000000000000B0
:1040100000000000000000000000000000000000A0
:104020000000000000000000000000000000000090
:104030000000000000000000000000000000000080
:104040000000000000000000000000000000000070
:104050000000000000000000000000000000000060
:1040600051000000000000000000000000000000FF
:1040700001FE98016B02FE98016B03FE98016B0430
:10408000FE98016B0102030302013132332B3332FC
:104090003101FD00006B0000000C8000016B02FD8F
:1040A00000006B0000000C8000016B03FD01006B41
:1040B0000000000C8000016B04FD01006B0000009B
:1040C0000C8000016B01FD01006B0000000C800002
:1040D000016B02FD01006B0000000C8000016B030E
:1040E000FD00006B0000000C8000016B04FD00006F
:1040F0006B0000000C8000016B3132332B31323306
:104100000100000010000000000000000024F40086
:1041100000FF666BAE001040B081FFA1A6A83FC8AB
:10412000D300D580D805D9F1DA12D8308D14AF007C
:04413000000000008B
:040000050800018965
:00000001FF
